{
    "contractName": "Election",
    "abi": [
        {
            "inputs": [],
            "stateMutability": "nonpayable",
            "type": "constructor"
        },
        {
            "anonymous": false,
            "inputs": [
                {
                    "indexed": true,
                    "internalType": "string",
                    "name": "pollId",
                    "type": "string"
                },
                {
                    "indexed": true,
                    "internalType": "string",
                    "name": "option",
                    "type": "string"
                }
            ],
            "name": "voteEvent",
            "type": "event"
        },
        {
            "inputs": [],
            "name": "check",
            "outputs": [
                {
                    "internalType": "bool",
                    "name": "",
                    "type": "bool"
                }
            ],
            "stateMutability": "view",
            "type": "function"
        },
        {
            "inputs": [],
            "name": "getAll",
            "outputs": [
                {
                    "components": [
                        {
                            "internalType": "uint256",
                            "name": "id",
                            "type": "uint256"
                        },
                        {
                            "internalType": "string",
                            "name": "pollid",
                            "type": "string"
                        },
                        {
                            "internalType": "string",
                            "name": "option",
                            "type": "string"
                        },
                        {
                            "internalType": "uint256",
                            "name": "voteCount",
                            "type": "uint256"
                        }
                    ],
                    "internalType": "struct Election.Poll[]",
                    "name": "",
                    "type": "tuple[]"
                }
            ],
            "stateMutability": "view",
            "type": "function"
        },
        {
            "inputs": [],
            "name": "pollCount",
            "outputs": [
                {
                    "internalType": "uint256",
                    "name": "",
                    "type": "uint256"
                }
            ],
            "stateMutability": "view",
            "type": "function"
        },
        {
            "inputs": [
                {
                    "internalType": "uint256",
                    "name": "",
                    "type": "uint256"
                }
            ],
            "name": "polls",
            "outputs": [
                {
                    "internalType": "uint256",
                    "name": "id",
                    "type": "uint256"
                },
                {
                    "internalType": "string",
                    "name": "pollid",
                    "type": "string"
                },
                {
                    "internalType": "string",
                    "name": "option",
                    "type": "string"
                },
                {
                    "internalType": "uint256",
                    "name": "voteCount",
                    "type": "uint256"
                }
            ],
            "stateMutability": "view",
            "type": "function"
        },
        {
            "inputs": [
                {
                    "internalType": "string",
                    "name": "pollid",
                    "type": "string"
                },
                {
                    "internalType": "string",
                    "name": "option",
                    "type": "string"
                }
            ],
            "name": "voted",
            "outputs": [],
            "stateMutability": "nonpayable",
            "type": "function"
        },
        {
            "inputs": [
                {
                    "internalType": "address",
                    "name": "",
                    "type": "address"
                }
            ],
            "name": "voters",
            "outputs": [
                {
                    "internalType": "bool",
                    "name": "",
                    "type": "bool"
                }
            ],
            "stateMutability": "view",
            "type": "function"
        }
    ],
    "bytecode": "60806040526002805460ff1916905534801561001a57600080fd5b50610b4d8061002a6000396000f3fe608060405234801561001057600080fd5b50600436106100625760003560e01c80634ffa00f11461006757806353ed51431461007c578063919840ad1461009a5780639207891d146100af578063a3ec138d146100c4578063ac2f0074146100d7575b600080fd5b61007a610075366004610889565b6100fa565b005b6100846103e1565b60405161009191906109ba565b60405180910390f35b6100a26105bd565b6040516100919190610a53565b6100b76105c6565b6040516100919190610aa1565b6100a26100d236600461085b565b6105cc565b6100ea6100e53660046108ea565b6105e1565b6040516100919493929190610aaa565b8160405160200161010b919061092e565b604051602081830303815290604052805190602001206000806001548152602001908152602001600020600101604051602001610148919061094a565b604051602081830303815290604052805190602001201480156101c6575080604051602001610177919061092e565b60408051601f19818403018152828252805160209182012060015460009081528083529290922091926101ae92600201910161094a565b60405160208183030381529060405280519060200120145b1561029e576002805460ff191660011790553360009081526003602052604090205460ff16156102115760405162461bcd60e51b815260040161020890610a5e565b60405180910390fd5b336000908152600360208181526040808420805460ff19166001908117909155805485529184905292839020909101805490910190555161025390829061092e565b604051809103902082604051610269919061092e565b604051908190038120907f46cc39a11bf2d1232634327f807e1024a1e1f78c9e44f433ebb7b7f398cc08b190600090a36103dd565b6002805460ff191690553360009081526003602052604090205460ff16156102d85760405162461bcd60e51b815260040161020890610a5e565b336000908152600360209081526040808320805460ff1916600190811790915580548101808255825160808101845281815280850188815281850188905260608201879052918652858552929094208251815593518051929493610342939285019291019061071d565b506040820151805161035e91600284019160209091019061071d565b50606091909101516003918201556001805460009081526020819052604090819020909201805490910190555161039690829061092e565b6040518091039020826040516103ac919061092e565b604051908190038120907f46cc39a11bf2d1232634327f807e1024a1e1f78c9e44f433ebb7b7f398cc08b190600090a35b5050565b60608060015467ffffffffffffffff811180156103fd57600080fd5b5060405190808252806020026020018201604052801561043757816020015b61042461079b565b81526020019060019003908161041c5790505b50905060005b6001548110156105b65760008181526020818152604091829020825160808101845281548152600180830180548651600293821615610100026000190190911692909204601f81018690048602830186019096528582529294919385938582019390918301828280156104f15780601f106104c6576101008083540402835291602001916104f1565b820191906000526020600020905b8154815290600101906020018083116104d457829003601f168201915b5050509183525050600282810180546040805160206001841615610100026000190190931694909404601f810183900483028501830190915280845293810193908301828280156105835780601f1061055857610100808354040283529160200191610583565b820191906000526020600020905b81548152906001019060200180831161056657829003601f168201915b505050505081526020016003820154815250508383815181106105a257fe5b60209081029190910101525060010161043d565b5090505b90565b60025460ff1681565b60015481565b60036020526000908152604090205460ff1681565b600060208181529181526040908190208054600180830180548551600293821615610100026000190190911692909204601f810187900487028301870190955284825291949293909283018282801561067b5780601f106106505761010080835404028352916020019161067b565b820191906000526020600020905b81548152906001019060200180831161065e57829003601f168201915b50505060028085018054604080516020601f600019610100600187161502019094169590950492830185900485028101850190915281815295969594509092509083018282801561070d5780601f106106e25761010080835404028352916020019161070d565b820191906000526020600020905b8154815290600101906020018083116106f057829003601f168201915b5050505050908060030154905084565b828054600181600116156101000203166002900490600052602060002090601f016020900481019282601f1061075e57805160ff191683800117855561078b565b8280016001018555821561078b579182015b8281111561078b578251825591602001919060010190610770565b506107979291506107c3565b5090565b6040518060800160405280600081526020016060815260200160608152602001600081525090565b6105ba91905b8082111561079757600081556001016107c9565b600082601f8301126107ed578081fd5b813567ffffffffffffffff80821115610804578283fd5b604051601f8301601f191681016020018281118282101715610824578485fd5b60405282815292508284830160200186101561083f57600080fd5b8260208601602083013760006020848301015250505092915050565b60006020828403121561086c578081fd5b81356001600160a01b0381168114610882578182fd5b9392505050565b6000806040838503121561089b578081fd5b823567ffffffffffffffff808211156108b2578283fd5b6108be868387016107dd565b935060208501359150808211156108d3578283fd5b506108e0858286016107dd565b9150509250929050565b6000602082840312156108fb578081fd5b5035919050565b6000815180845261091a816020860160208601610ae7565b601f01601f19169290920160200192915050565b60008251610940818460208701610ae7565b9190910192915050565b60008083546001808216600081146109695760018114610980576109af565b60ff198316865260028304607f16860193506109af565b600283048786526020808720875b838110156109a75781548a82015290850190820161098e565b505050860193505b509195945050505050565b60208082528251828201819052600091906040908185019080840286018301878501865b83811015610a4557603f19898403018552815160808151855288820151818a870152610a0c82870182610902565b8984015192508681038a880152610a238184610902565b60609485015197909401969096525050948701949250908601906001016109de565b509098975050505050505050565b901515815260200190565b60208082526023908201527f4d6573736167652066726f6d20536f6c696469747920747248656c6c6f20576f6040820152621c9b1960ea1b606082015260800190565b90815260200190565b600085825260806020830152610ac36080830186610902565b8281036040840152610ad58186610902565b91505082606083015295945050505050565b60005b83811015610b02578181015183820152602001610aea565b83811115610b11576000848401525b5050505056fea2646970667358221220ce64bd30eacab421fdf16cad000e6546221de1de628bfeb94108ad165d76017e64736f6c63430006080033",
    "sourcePath": "/home/zara/Documents/Frontend-Vlock/contracts/Election.sol",
    "compiler": {
        "name": "solc",
        "version": "0.6.8+commit.0bbfe453"
    },
    "functionHashes": {
        "check()": "919840ad",
        "getAll()": "53ed5143",
        "pollCount()": "9207891d",
        "polls(uint256)": "ac2f0074",
        "voted(string,string)": "4ffa00f1",
        "voters(address)": "a3ec138d"
    },
    "gasEstimates": {
        "creation": {
            "codeDepositCost": "578600",
            "executionCost": "21431",
            "totalCost": "600031"
        },
        "external": {
            "check()": "1062",
            "getAll()": "infinite",
            "pollCount()": "1072",
            "polls(uint256)": "infinite",
            "voted(string,string)": "infinite",
            "voters(address)": "1295"
        }
    }
}