{
  "contractName": "Election",
  "abi": [
    {
      "inputs": [],
      "payable": false,
      "stateMutability": "nonpayable",
      "type": "constructor"
    },
    {
      "anonymous": false,
      "inputs": [
        {
          "indexed": true,
          "internalType": "string",
          "name": "pollId",
          "type": "string"
        },
        {
          "indexed": true,
          "internalType": "string",
          "name": "option",
          "type": "string"
        }
      ],
      "name": "votedEvent",
      "type": "event"
    },
    {
      "constant": true,
      "inputs": [],
      "name": "check",
      "outputs": [
        {
          "internalType": "bool",
          "name": "",
          "type": "bool"
        }
      ],
      "payable": false,
      "stateMutability": "view",
      "type": "function"
    },
    {
      "constant": true,
      "inputs": [],
      "name": "pollCount",
      "outputs": [
        {
          "internalType": "uint256",
          "name": "",
          "type": "uint256"
        }
      ],
      "payable": false,
      "stateMutability": "view",
      "type": "function"
    },
    {
      "constant": true,
      "inputs": [
        {
          "internalType": "uint256",
          "name": "",
          "type": "uint256"
        }
      ],
      "name": "polls",
      "outputs": [
        {
          "internalType": "uint256",
          "name": "id",
          "type": "uint256"
        },
        {
          "internalType": "string",
          "name": "pollid",
          "type": "string"
        },
        {
          "internalType": "string",
          "name": "option",
          "type": "string"
        },
        {
          "internalType": "uint256",
          "name": "voteCount",
          "type": "uint256"
        }
      ],
      "payable": false,
      "stateMutability": "view",
      "type": "function"
    },
    {
      "constant": true,
      "inputs": [
        {
          "internalType": "uint256",
          "name": "",
          "type": "uint256"
        }
      ],
      "name": "proposals",
      "outputs": [
        {
          "internalType": "string",
          "name": "pollid",
          "type": "string"
        },
        {
          "internalType": "address",
          "name": "voter",
          "type": "address"
        }
      ],
      "payable": false,
      "stateMutability": "view",
      "type": "function"
    },
    {
      "constant": true,
      "inputs": [],
      "name": "voterExist",
      "outputs": [
        {
          "internalType": "bool",
          "name": "",
          "type": "bool"
        }
      ],
      "payable": false,
      "stateMutability": "view",
      "type": "function"
    },
    {
      "constant": true,
      "inputs": [
        {
          "internalType": "address",
          "name": "",
          "type": "address"
        }
      ],
      "name": "voters",
      "outputs": [
        {
          "internalType": "bool",
          "name": "",
          "type": "bool"
        }
      ],
      "payable": false,
      "stateMutability": "view",
      "type": "function"
    },
    {
      "constant": false,
      "inputs": [
        {
          "internalType": "string",
          "name": "pollid",
          "type": "string"
        },
        {
          "internalType": "string",
          "name": "option",
          "type": "string"
        }
      ],
      "name": "vote",
      "outputs": [],
      "payable": false,
      "stateMutability": "nonpayable",
      "type": "function"
    },
    {
      "constant": true,
      "inputs": [],
      "name": "getAll",
      "outputs": [
        {
          "components": [
            {
              "internalType": "uint256",
              "name": "id",
              "type": "uint256"
            },
            {
              "internalType": "string",
              "name": "pollid",
              "type": "string"
            },
            {
              "internalType": "string",
              "name": "option",
              "type": "string"
            },
            {
              "internalType": "uint256",
              "name": "voteCount",
              "type": "uint256"
            }
          ],
          "internalType": "struct Election.Poll[]",
          "name": "",
          "type": "tuple[]"
        }
      ],
      "payable": false,
      "stateMutability": "view",
      "type": "function"
    }
  ],
  "bytecode": "0x60806040526000600460006101000a81548160ff0219169083151502179055506000600460016101000a81548160ff02191690831515021790555034801561004657600080fd5b50611464806100566000396000f3fe608060405234801561001057600080fd5b50600436106100885760003560e01c8063a3ec138d1161005b578063a3ec138d14610118578063ac2f007414610148578063baca9b871461017b578063e8d5940d1461019957610088565b8063013cf08b1461008d57806353ed5143146100be578063919840ad146100dc5780639207891d146100fa575b600080fd5b6100a760048036036100a29190810190610e7c565b6101b5565b6040516100b59291906111b0565b60405180910390f35b6100c661029e565b6040516100d39190611173565b60405180910390f35b6100e4610498565b6040516100f19190611195565b60405180910390f35b6101026104ab565b60405161010f9190611200565b60405180910390f35b610132600480360361012d9190810190610de7565b6104b1565b60405161013f9190611195565b60405180910390f35b610162600480360361015d9190810190610e7c565b6104d1565b604051610172949392919061121b565b60405180910390f35b610183610631565b6040516101909190611195565b60405180910390f35b6101b360048036036101ae9190810190610e10565b610644565b005b600081815481106101c257fe5b9060005260206000209060020201600091509050806000018054600181600116156101000203166002900480601f01602080910402602001604051908101604052809291908181526020018280546001816001161561010002031660029004801561026e5780601f106102435761010080835404028352916020019161026e565b820191906000526020600020905b81548152906001019060200180831161025157829003601f168201915b5050505050908060010160009054906101000a900473ffffffffffffffffffffffffffffffffffffffff16905082565b6060806003546040519080825280602002602001820160405280156102dd57816020015b6102ca610c1c565b8152602001906001900390816102c25790505b50905060008090505b6003548110156104905760006002600083815260200190815260200160002090508060405180608001604052908160008201548152602001600182018054600181600116156101000203166002900480601f0160208091040260200160405190810160405280929190818152602001828054600181600116156101000203166002900480156103b65780601f1061038b576101008083540402835291602001916103b6565b820191906000526020600020905b81548152906001019060200180831161039957829003601f168201915b50505050508152602001600282018054600181600116156101000203166002900480601f0160208091040260200160405190810160405280929190818152602001828054600181600116156101000203166002900480156104585780601f1061042d57610100808354040283529160200191610458565b820191906000526020600020905b81548152906001019060200180831161043b57829003601f168201915b5050505050815260200160038201548152505083838151811061047757fe5b60200260200101819052505080806001019150506102e6565b508091505090565b600460009054906101000a900460ff1681565b60035481565b60016020528060005260406000206000915054906101000a900460ff1681565b6002602052806000526040600020600091509050806000015490806001018054600181600116156101000203166002900480601f0160208091040260200160405190810160405280929190818152602001828054600181600116156101000203166002900480156105835780601f1061055857610100808354040283529160200191610583565b820191906000526020600020905b81548152906001019060200180831161056657829003601f168201915b505050505090806002018054600181600116156101000203166002900480601f0160208091040260200160405190810160405280929190818152602001828054600181600116156101000203166002900480156106215780601f106105f657610100808354040283529160200191610621565b820191906000526020600020905b81548152906001019060200180831161060457829003601f168201915b5050505050908060030154905084565b600460019054906101000a900460ff1681565b60008090505b60008054905081101561084e57826040516020016106689190611145565b604051602081830303815290604052805190602001206000828154811061068b57fe5b90600052602060002090600202016000016040516020016106ac919061115c565b6040516020818303038152906040528051906020012014801561073857503373ffffffffffffffffffffffffffffffffffffffff16600082815481106106ee57fe5b906000526020600020906002020160010160009054906101000a900473ffffffffffffffffffffffffffffffffffffffff1673ffffffffffffffffffffffffffffffffffffffff16145b15610841576001600460016101000a81548160ff02191690831515021790555060018060003373ffffffffffffffffffffffffffffffffffffffff1673ffffffffffffffffffffffffffffffffffffffff16815260200190815260200160002060006101000a81548160ff021916908315150217905550600160003373ffffffffffffffffffffffffffffffffffffffff1673ffffffffffffffffffffffffffffffffffffffff16815260200190815260200160002060009054906101000a900460ff161561083c576040517f08c379a0000000000000000000000000000000000000000000000000000000008152600401610833906111e0565b60405180910390fd5b61084e565b808060010191505061064a565b50816040516020016108609190611145565b6040516020818303038152906040528051906020012060026000600354815260200190815260200160002060010160405160200161089e919061115c565b604051602081830303815290604052805190602001201480156109235750806040516020016108cd9190611145565b6040516020818303038152906040528051906020012060026000600354815260200190815260200160002060020160405160200161090b919061115c565b60405160208183030381529060405280519060200120145b15610a145760026000600354815260200190815260200160002060030160008154809291906001019190505550600060405180604001604052808481526020013373ffffffffffffffffffffffffffffffffffffffff168152509080600181540180825580915050906001820390600052602060002090600202016000909192909190915060008201518160000190805190602001906109c4929190610c44565b5060208201518160010160006101000a81548173ffffffffffffffffffffffffffffffffffffffff021916908373ffffffffffffffffffffffffffffffffffffffff160217905550505050610c18565b6000600460006101000a81548160ff021916908315150217905550600060405180604001604052808481526020013373ffffffffffffffffffffffffffffffffffffffff16815250908060018154018082558091505090600182039060005260206000209060020201600090919290919091506000820151816000019080519060200190610aa3929190610c44565b5060208201518160010160006101000a81548173ffffffffffffffffffffffffffffffffffffffff021916908373ffffffffffffffffffffffffffffffffffffffff16021790555050505060036000815480929190600101919050555060035460026000600354815260200190815260200160002060000181905550816002600060035481526020019081526020016000206001019080519060200190610b4b929190610cc4565b50806002600060035481526020019081526020016000206002019080519060200190610b78929190610cc4565b506000600260006003548152602001908152602001600020600301819055506002600060035481526020019081526020016000206003016000815480929190600101919050555080604051610bcd9190611145565b604051809103902082604051610be39190611145565b60405180910390207fb72bc004d3c880dde5aa3e326a8cd34deb7b664a4eccf90d78bce917dce6964f60405160405180910390a35b5050565b6040518060800160405280600081526020016060815260200160608152602001600081525090565b828054600181600116156101000203166002900490600052602060002090601f016020900481019282601f10610c8557805160ff1916838001178555610cb3565b82800160010185558215610cb3579182015b82811115610cb2578251825591602001919060010190610c97565b5b509050610cc09190610d44565b5090565b828054600181600116156101000203166002900490600052602060002090601f016020900481019282601f10610d0557805160ff1916838001178555610d33565b82800160010185558215610d33579182015b82811115610d32578251825591602001919060010190610d17565b5b509050610d409190610d44565b5090565b610d6691905b80821115610d62576000816000905550600101610d4a565b5090565b90565b600081359050610d78816113f3565b92915050565b600082601f830112610d8f57600080fd5b8135610da2610d9d8261129b565b61126e565b91508082526020830160208301858383011115610dbe57600080fd5b610dc98382846113a0565b50505092915050565b600081359050610de18161140a565b92915050565b600060208284031215610df957600080fd5b6000610e0784828501610d69565b91505092915050565b60008060408385031215610e2357600080fd5b600083013567ffffffffffffffff811115610e3d57600080fd5b610e4985828601610d7e565b925050602083013567ffffffffffffffff811115610e6657600080fd5b610e7285828601610d7e565b9150509250929050565b600060208284031215610e8e57600080fd5b6000610e9c84828501610dd2565b91505092915050565b6000610eb183836110bd565b905092915050565b610ec281611358565b82525050565b6000610ed3826112ec565b610edd818561131a565b935083602082028501610eef856112c7565b8060005b85811015610f2b5784840389528151610f0c8582610ea5565b9450610f178361130d565b925060208a01995050600181019050610ef3565b50829750879550505050505092915050565b610f468161136a565b82525050565b6000610f5782611302565b610f61818561134d565b9350610f718185602086016113af565b80840191505092915050565b6000610f88826112f7565b610f92818561132b565b9350610fa28185602086016113af565b610fab816113e2565b840191505092915050565b6000610fc1826112f7565b610fcb818561133c565b9350610fdb8185602086016113af565b610fe4816113e2565b840191505092915050565b60008154600181166000811461100c576001811461103157611075565b607f600283041661101d818761134d565b955060ff1983168652808601935050611075565b6002820461103f818761134d565b955061104a856112d7565b60005b8281101561106c5781548189015260018201915060208101905061104d565b82880195505050505b505092915050565b600061108a60138361133c565b91507f5573657220416c726561647920566f74656420000000000000000000000000006000830152602082019050919050565b60006080830160008301516110d56000860182611127565b50602083015184820360208601526110ed8282610f7d565b915050604083015184820360408601526111078282610f7d565b915050606083015161111c6060860182611127565b508091505092915050565b61113081611396565b82525050565b61113f81611396565b82525050565b60006111518284610f4c565b915081905092915050565b60006111688284610fef565b915081905092915050565b6000602082019050818103600083015261118d8184610ec8565b905092915050565b60006020820190506111aa6000830184610f3d565b92915050565b600060408201905081810360008301526111ca8185610fb6565b90506111d96020830184610eb9565b9392505050565b600060208201905081810360008301526111f98161107d565b9050919050565b60006020820190506112156000830184611136565b92915050565b60006080820190506112306000830187611136565b81810360208301526112428186610fb6565b905081810360408301526112568185610fb6565b90506112656060830184611136565b95945050505050565b6000604051905081810181811067ffffffffffffffff8211171561129157600080fd5b8060405250919050565b600067ffffffffffffffff8211156112b257600080fd5b601f19601f8301169050602081019050919050565b6000819050602082019050919050565b60008190508160005260206000209050919050565b600081519050919050565b600081519050919050565b600081519050919050565b6000602082019050919050565b600082825260208201905092915050565b600082825260208201905092915050565b600082825260208201905092915050565b600081905092915050565b600061136382611376565b9050919050565b60008115159050919050565b600073ffffffffffffffffffffffffffffffffffffffff82169050919050565b6000819050919050565b82818337600083830152505050565b60005b838110156113cd5780820151818401526020810190506113b2565b838111156113dc576000848401525b50505050565b6000601f19601f8301169050919050565b6113fc81611358565b811461140757600080fd5b50565b61141381611396565b811461141e57600080fd5b5056fea365627a7a72315820b884bed606e7208788248502af32da7b4cd174e60fc6a8d84fe0422c7c69cc356c6578706572696d656e74616cf564736f6c63430005100040",
  "source": "pragma solidity ^0.5.16;\npragma experimental ABIEncoderV2;\n\ncontract Election {\n    // Model a Candidate\n    struct Poll {\n        uint256 id;\n        string pollid;\n        string option;\n        uint256 voteCount;\n    }\n\n    struct Verification{\n      string pollid;\n      address voter;\n    }\n    \n        Verification[] public proposals;\n\n    mapping(address => bool) public voters;\n    mapping(uint256 => Poll) public polls;\n \n\n    uint256 public pollCount;\n\n    constructor() public {}\n\n    bool public check = false;\n    bool public voterExist = false;\n\n    event votedEvent(string indexed pollId, string indexed option);\n    \n\n    function vote(string memory pollid, string memory option) public {\n   \n         for (uint p = 0; p < proposals.length; p++) {\n            if(  keccak256(abi.encodePacked((proposals[p].pollid))) ==\n            keccak256(abi.encodePacked((pollid)))  &&   proposals[p].voter == msg.sender)\n             {\n                     voterExist= true;\n                      voters[msg.sender]=true;\n                      require(!voters[msg.sender], \"User Already Voted \");\n                      break;\n            }\n        }\n      \nif(keccak256(abi.encodePacked((polls[pollCount].pollid))) == keccak256(abi.encodePacked((pollid)))\n\n&& (keccak256(abi.encodePacked(polls[pollCount].option)) == (keccak256(abi.encodePacked(option))))  )\n{\n     polls[pollCount].voteCount++;   \n         proposals.push(Verification({\n                pollid:pollid,\n                voter: msg.sender\n            }));\n }\n   \nelse\n\n{\n//stonedetailsTable[0].stoneidsbycutter.push(\"hello\");\n\ncheck = false;\n proposals.push(Verification({\n                pollid:pollid,\n                voter: msg.sender\n            }));\npollCount++;\npolls[pollCount].id= pollCount;\npolls[pollCount].pollid= pollid;\npolls[pollCount].option= option;\npolls[pollCount].voteCount= 0;\npolls[pollCount].voteCount ++;\nemit votedEvent(pollid,option);\n\n}\n\n        \n    }\n\n    function getAll() public  view returns (Poll[] memory) {\n\n     //   pollCount=pollCount+1;      \n        Poll[] memory myPoll = new Poll[](pollCount);\n      \n        for (uint256 i = 0; i < pollCount; i++) {\n            Poll storage pol = polls[i];\n            myPoll[i] = pol;\n        }\n        \n       \n         return myPoll;\n    }\n}\n",
  "sourcePath": "/home/zara/Documents/Frontend-Vlock/contracts/Election.sol",
  "compiler": {
    "name": "solc",
    "version": "0.5.16+commit.9c3226ce.Emscripten.clang"
  },
  "schemaVersion": "3.2.3",
  "updatedAt": "2021-01-15T19:41:43.109Z",
  "networkType": "ethereum",
  "devdoc": {
    "methods": {}
  },
  "userdoc": {
    "methods": {}
  }
}