{
  "contractName": "Election",
  "abi": [
    {
      "inputs": [],
      "payable": false,
      "stateMutability": "nonpayable",
      "type": "constructor"
    },
    {
      "anonymous": false,
      "inputs": [
        {
          "indexed": true,
          "internalType": "string",
          "name": "pollId",
          "type": "string"
        },
        {
          "indexed": true,
          "internalType": "string",
          "name": "option",
          "type": "string"
        }
      ],
      "name": "votedEvent",
      "type": "event"
    },
    {
      "constant": true,
      "inputs": [],
      "name": "check",
      "outputs": [
        {
          "internalType": "bool",
          "name": "",
          "type": "bool"
        }
      ],
      "payable": false,
      "stateMutability": "view",
      "type": "function"
    },
    {
      "constant": true,
      "inputs": [],
      "name": "pollCount",
      "outputs": [
        {
          "internalType": "uint256",
          "name": "",
          "type": "uint256"
        }
      ],
      "payable": false,
      "stateMutability": "view",
      "type": "function"
    },
    {
      "constant": true,
      "inputs": [
        {
          "internalType": "uint256",
          "name": "",
          "type": "uint256"
        }
      ],
      "name": "polls",
      "outputs": [
        {
          "internalType": "string",
          "name": "pollid",
          "type": "string"
        },
        {
          "internalType": "string",
          "name": "option",
          "type": "string"
        },
        {
          "internalType": "uint256",
          "name": "voteCount",
          "type": "uint256"
        }
      ],
      "payable": false,
      "stateMutability": "view",
      "type": "function"
    },
    {
      "constant": true,
      "inputs": [
        {
          "internalType": "uint256",
          "name": "",
          "type": "uint256"
        }
      ],
      "name": "proposals",
      "outputs": [
        {
          "internalType": "string",
          "name": "pollid",
          "type": "string"
        },
        {
          "internalType": "address",
          "name": "voter",
          "type": "address"
        }
      ],
      "payable": false,
      "stateMutability": "view",
      "type": "function"
    },
    {
      "constant": true,
      "inputs": [],
      "name": "voterExist",
      "outputs": [
        {
          "internalType": "bool",
          "name": "",
          "type": "bool"
        }
      ],
      "payable": false,
      "stateMutability": "view",
      "type": "function"
    },
    {
      "constant": true,
      "inputs": [
        {
          "internalType": "address",
          "name": "",
          "type": "address"
        }
      ],
      "name": "voters",
      "outputs": [
        {
          "internalType": "bool",
          "name": "",
          "type": "bool"
        }
      ],
      "payable": false,
      "stateMutability": "view",
      "type": "function"
    },
    {
      "constant": false,
      "inputs": [
        {
          "internalType": "string",
          "name": "pollid",
          "type": "string"
        },
        {
          "internalType": "string",
          "name": "option",
          "type": "string"
        }
      ],
      "name": "vote",
      "outputs": [],
      "payable": false,
      "stateMutability": "nonpayable",
      "type": "function"
    },
    {
      "constant": false,
      "inputs": [
        {
          "internalType": "string",
          "name": "id",
          "type": "string"
        },
        {
          "internalType": "string",
          "name": "opt",
          "type": "string"
        }
      ],
      "name": "checkOptionExist",
      "outputs": [
        {
          "internalType": "bool",
          "name": "",
          "type": "bool"
        }
      ],
      "payable": false,
      "stateMutability": "nonpayable",
      "type": "function"
    },
    {
      "constant": true,
      "inputs": [],
      "name": "getAll",
      "outputs": [
        {
          "components": [
            {
              "internalType": "string",
              "name": "pollid",
              "type": "string"
            },
            {
              "internalType": "string",
              "name": "option",
              "type": "string"
            },
            {
              "internalType": "uint256",
              "name": "voteCount",
              "type": "uint256"
            }
          ],
          "internalType": "struct Election.Poll[]",
          "name": "",
          "type": "tuple[]"
        }
      ],
      "payable": false,
      "stateMutability": "view",
      "type": "function"
    },
    {
      "constant": true,
      "inputs": [],
      "name": "getVoters",
      "outputs": [
        {
          "components": [
            {
              "internalType": "string",
              "name": "pollid",
              "type": "string"
            },
            {
              "internalType": "address",
              "name": "voter",
              "type": "address"
            }
          ],
          "internalType": "struct Election.Verification[]",
          "name": "",
          "type": "tuple[]"
        }
      ],
      "payable": false,
      "stateMutability": "view",
      "type": "function"
    },
    {
      "constant": true,
      "inputs": [],
      "name": "getLength",
      "outputs": [
        {
          "internalType": "uint256",
          "name": "",
          "type": "uint256"
        }
      ],
      "payable": false,
      "stateMutability": "view",
      "type": "function"
    }
  ],
  "bytecode": "0x60806040526000600460006101000a81548160ff0219169083151502179055506000600460016101000a81548160ff02191690831515021790555034801561004657600080fd5b5061165d806100566000396000f3fe608060405234801561001057600080fd5b50600436106100a95760003560e01c8063a3ec138d11610071578063a3ec138d14610169578063ac2f007414610199578063baca9b87146101cb578063be1c766b146101e9578063cdd7225314610207578063e8d5940d14610225576100a9565b8063013cf08b146100ae57806353ed5143146100df5780635a1f265f146100fd578063919840ad1461012d5780639207891d1461014b575b600080fd5b6100c860048036036100c39190810190610f66565b610241565b6040516100d692919061137e565b60405180910390f35b6100e761032a565b6040516100f4919061131f565b60405180910390f35b61011760048036036101129190810190610efa565b6104d7565b6040516101249190611363565b60405180910390f35b6101356106dd565b6040516101429190611363565b60405180910390f35b6101536106f0565b6040516101609190611413565b60405180910390f35b610183600480360361017e9190810190610ed1565b6106f6565b6040516101909190611363565b60405180910390f35b6101b360048036036101ae9190810190610f66565b610716565b6040516101c2939291906113ae565b60405180910390f35b6101d361087d565b6040516101e09190611363565b60405180910390f35b6101f1610890565b6040516101fe9190611413565b60405180910390f35b61020f61089d565b60405161021c9190611341565b60405180910390f35b61023f600480360361023a9190810190610efa565b6109f4565b005b6000818154811061024e57fe5b9060005260206000209060020201600091509050806000018054600181600116156101000203166002900480601f0160208091040260200160405190810160405280929190818152602001828054600181600116156101000203166002900480156102fa5780601f106102cf576101008083540402835291602001916102fa565b820191906000526020600020905b8154815290600101906020018083116102dd57829003601f168201915b5050505050908060010160009054906101000a900473ffffffffffffffffffffffffffffffffffffffff16905082565b60606001805480602002602001604051908101604052809291908181526020016000905b828210156104ce5783829060005260206000209060030201604051806060016040529081600082018054600181600116156101000203166002900480601f01602080910402602001604051908101604052809291908181526020018280546001816001161561010002031660029004801561040a5780601f106103df5761010080835404028352916020019161040a565b820191906000526020600020905b8154815290600101906020018083116103ed57829003601f168201915b50505050508152602001600182018054600181600116156101000203166002900480601f0160208091040260200160405190810160405280929190818152602001828054600181600116156101000203166002900480156104ac5780601f10610481576101008083540402835291602001916104ac565b820191906000526020600020905b81548152906001019060200180831161048f57829003601f168201915b505050505081526020016002820154815250508152602001906001019061034e565b50505050905090565b600080600090505b6001805490508110156106d557836040516020016104fd91906112f1565b604051602081830303815290604052805190602001206001828154811061052057fe5b90600052602060002090600302016000016040516020016105419190611308565b604051602081830303815290604052805190602001201480156105cc57508260405160200161057091906112f1565b604051602081830303815290604052805190602001206001828154811061059357fe5b90600052602060002090600302016001016040516020016105b49190611308565b60405160208183030381529060405280519060200120145b156106c857600181815481106105de57fe5b906000526020600020906003020160020160008154809291906001019190505550600060405180604001604052808681526020013373ffffffffffffffffffffffffffffffffffffffff16815250908060018154018082558091505090600182039060005260206000209060020201600090919290919091506000820151816000019080519060200190610673929190610dae565b5060208201518160010160006101000a81548173ffffffffffffffffffffffffffffffffffffffff021916908373ffffffffffffffffffffffffffffffffffffffff16021790555050505060019150506106d7565b80806001019150506104df565b505b92915050565b600460009054906101000a900460ff1681565b60035481565b60026020528060005260406000206000915054906101000a900460ff1681565b6001818154811061072357fe5b9060005260206000209060030201600091509050806000018054600181600116156101000203166002900480601f0160208091040260200160405190810160405280929190818152602001828054600181600116156101000203166002900480156107cf5780601f106107a4576101008083540402835291602001916107cf565b820191906000526020600020905b8154815290600101906020018083116107b257829003601f168201915b505050505090806001018054600181600116156101000203166002900480601f01602080910402602001604051908101604052809291908181526020018280546001816001161561010002031660029004801561086d5780601f106108425761010080835404028352916020019161086d565b820191906000526020600020905b81548152906001019060200180831161085057829003601f168201915b5050505050908060020154905083565b600460019054906101000a900460ff1681565b6000600180549050905090565b60606000805480602002602001604051908101604052809291908181526020016000905b828210156109eb5783829060005260206000209060020201604051806040016040529081600082018054600181600116156101000203166002900480601f01602080910402602001604051908101604052809291908181526020018280546001816001161561010002031660029004801561097d5780601f106109525761010080835404028352916020019161097d565b820191906000526020600020905b81548152906001019060200180831161096057829003601f168201915b505050505081526020016001820160009054906101000a900473ffffffffffffffffffffffffffffffffffffffff1673ffffffffffffffffffffffffffffffffffffffff1673ffffffffffffffffffffffffffffffffffffffff1681525050815260200190600101906108c1565b50505050905090565b60008090505b600080549050811015610bff5782604051602001610a1891906112f1565b6040516020818303038152906040528051906020012060008281548110610a3b57fe5b9060005260206000209060020201600001604051602001610a5c9190611308565b60405160208183030381529060405280519060200120148015610ae857503373ffffffffffffffffffffffffffffffffffffffff1660008281548110610a9e57fe5b906000526020600020906002020160010160009054906101000a900473ffffffffffffffffffffffffffffffffffffffff1673ffffffffffffffffffffffffffffffffffffffff16145b15610bf2576001600460016101000a81548160ff0219169083151502179055506001600260003373ffffffffffffffffffffffffffffffffffffffff1673ffffffffffffffffffffffffffffffffffffffff16815260200190815260200160002060006101000a81548160ff021916908315150217905550600260003373ffffffffffffffffffffffffffffffffffffffff1673ffffffffffffffffffffffffffffffffffffffff16815260200190815260200160002060009054906101000a900460ff1615610bed576040517f08c379a0000000000000000000000000000000000000000000000000000000008152600401610be4906113f3565b60405180910390fd5b610bff565b80806001019150506109fa565b50610c0a82826104d7565b600460016101000a81548160ff02191690831515021790555060001515600460019054906101000a900460ff1615151415610daa576000600460006101000a81548160ff021916908315150217905550600060405180604001604052808481526020013373ffffffffffffffffffffffffffffffffffffffff16815250908060018154018082558091505090600182039060005260206000209060020201600090919290919091506000820151816000019080519060200190610cce929190610dae565b5060208201518160010160006101000a81548173ffffffffffffffffffffffffffffffffffffffff021916908373ffffffffffffffffffffffffffffffffffffffff160217905550505050600160405180606001604052808481526020018381526020016001815250908060018154018082558091505090600182039060005260206000209060030201600090919290919091506000820151816000019080519060200190610d7e929190610dae565b506020820151816001019080519060200190610d9b929190610dae565b50604082015181600201555050505b5050565b828054600181600116156101000203166002900490600052602060002090601f016020900481019282601f10610def57805160ff1916838001178555610e1d565b82800160010185558215610e1d579182015b82811115610e1c578251825591602001919060010190610e01565b5b509050610e2a9190610e2e565b5090565b610e5091905b80821115610e4c576000816000905550600101610e34565b5090565b90565b600081359050610e62816115ec565b92915050565b600082601f830112610e7957600080fd5b8135610e8c610e878261145b565b61142e565b91508082526020830160208301858383011115610ea857600080fd5b610eb3838284611599565b50505092915050565b600081359050610ecb81611603565b92915050565b600060208284031215610ee357600080fd5b6000610ef184828501610e53565b91505092915050565b60008060408385031215610f0d57600080fd5b600083013567ffffffffffffffff811115610f2757600080fd5b610f3385828601610e68565b925050602083013567ffffffffffffffff811115610f5057600080fd5b610f5c85828601610e68565b9150509250929050565b600060208284031215610f7857600080fd5b6000610f8684828501610ebc565b91505092915050565b6000610f9b838361123f565b905092915050565b6000610faf8383611296565b905092915050565b610fc081611551565b82525050565b610fcf81611551565b82525050565b6000610fe0826114bc565b610fea8185611502565b935083602082028501610ffc85611487565b8060005b8581101561103857848403895281516110198582610f8f565b9450611024836114e8565b925060208a01995050600181019050611000565b50829750879550505050505092915050565b6000611055826114c7565b61105f8185611513565b93508360208202850161107185611497565b8060005b858110156110ad578484038952815161108e8582610fa3565b9450611099836114f5565b925060208a01995050600181019050611075565b50829750879550505050505092915050565b6110c881611563565b82525050565b60006110d9826114dd565b6110e38185611546565b93506110f38185602086016115a8565b80840191505092915050565b600061110a826114d2565b6111148185611524565b93506111248185602086016115a8565b61112d816115db565b840191505092915050565b6000611143826114d2565b61114d8185611535565b935061115d8185602086016115a8565b611166816115db565b840191505092915050565b60008154600181166000811461118e57600181146111b3576111f7565b607f600283041661119f8187611546565b955060ff19831686528086019350506111f7565b600282046111c18187611546565b95506111cc856114a7565b60005b828110156111ee578154818901526001820191506020810190506111cf565b82880195505050505b505092915050565b600061120c601383611535565b91507f5573657220416c726561647920566f74656420000000000000000000000000006000830152602082019050919050565b6000606083016000830151848203600086015261125c82826110ff565b9150506020830151848203602086015261127682826110ff565b915050604083015161128b60408601826112d3565b508091505092915050565b600060408301600083015184820360008601526112b382826110ff565b91505060208301516112c86020860182610fb7565b508091505092915050565b6112dc8161158f565b82525050565b6112eb8161158f565b82525050565b60006112fd82846110ce565b915081905092915050565b60006113148284611171565b915081905092915050565b600060208201905081810360008301526113398184610fd5565b905092915050565b6000602082019050818103600083015261135b818461104a565b905092915050565b600060208201905061137860008301846110bf565b92915050565b600060408201905081810360008301526113988185611138565b90506113a76020830184610fc6565b9392505050565b600060608201905081810360008301526113c88186611138565b905081810360208301526113dc8185611138565b90506113eb60408301846112e2565b949350505050565b6000602082019050818103600083015261140c816111ff565b9050919050565b600060208201905061142860008301846112e2565b92915050565b6000604051905081810181811067ffffffffffffffff8211171561145157600080fd5b8060405250919050565b600067ffffffffffffffff82111561147257600080fd5b601f19601f8301169050602081019050919050565b6000819050602082019050919050565b6000819050602082019050919050565b60008190508160005260206000209050919050565b600081519050919050565b600081519050919050565b600081519050919050565b600081519050919050565b6000602082019050919050565b6000602082019050919050565b600082825260208201905092915050565b600082825260208201905092915050565b600082825260208201905092915050565b600082825260208201905092915050565b600081905092915050565b600061155c8261156f565b9050919050565b60008115159050919050565b600073ffffffffffffffffffffffffffffffffffffffff82169050919050565b6000819050919050565b82818337600083830152505050565b60005b838110156115c65780820151818401526020810190506115ab565b838111156115d5576000848401525b50505050565b6000601f19601f8301169050919050565b6115f581611551565b811461160057600080fd5b50565b61160c8161158f565b811461161757600080fd5b5056fea365627a7a7231582028e5250b8772580edb75f3a7d86707d7586eed6dffb64b8e7a18617e89c666ad6c6578706572696d656e74616cf564736f6c63430005100040",
  "source": "pragma solidity ^0.5.16;\npragma experimental ABIEncoderV2;\n\ncontract Election {\n// Model a Candidate\nstruct Poll {\n// uint256 id;\nstring pollid;\nstring option;\nuint256 voteCount;\n}\n\nstruct Verification {\nstring pollid;\naddress voter;\n}\n\nVerification[] public proposals;\nPoll[] public polls;\n\nmapping(address => bool) public voters;\n// mapping(uint256 => Poll) public polls;\n\nuint256 public pollCount;\n\nconstructor() public {}\n\nbool public check = false;\nbool public voterExist = false;\n\nevent votedEvent(string indexed pollId, string indexed option);\n\nfunction vote(string memory pollid, string memory option) public {\nfor (uint256 p = 0; p < proposals.length; p++) {\nif (\nkeccak256(abi.encodePacked((proposals[p].pollid))) ==\nkeccak256(abi.encodePacked((pollid))) &&\nproposals[p].voter == msg.sender\n) {\nvoterExist = true;\nvoters[msg.sender] = true;\nrequire(!voters[msg.sender], \"User Already Voted \");\nbreak;\n}\n}\n\nvoterExist = checkOptionExist(pollid, option);\nif (voterExist == false) {\ncheck = false;\nproposals.push(Verification({pollid: pollid, voter: msg.sender}));\npolls.push(Poll({pollid: pollid, option: option, voteCount: 1}));\n}\n}\n\nfunction checkOptionExist(string memory id, string memory opt)\npublic\nreturns (bool)\n{\nfor (uint256 i = 0; i < polls.length; i++) {\nif (\nkeccak256(abi.encodePacked((polls[i].pollid))) ==\nkeccak256(abi.encodePacked((id))) &&\n(keccak256(abi.encodePacked(polls[i].option)) ==\n(keccak256(abi.encodePacked(opt))))\n) {\npolls[i].voteCount++;\nproposals.push(Verification({pollid: id, voter: msg.sender}));\n\nreturn true;\n}\n}\n}\n\nfunction getAll() public view returns (Poll[] memory) {\nreturn polls;\n}\n\nfunction getVoters() public view returns (Verification[] memory) {\nreturn proposals;\n}\n\nfunction getLength() public view returns (uint256) {\nreturn polls.length;\n}\n\n}",
  "sourcePath": "/home/zarish/Documents/SDP2/Frontend-Vlock/contracts/Election.sol",
  "compiler": {
    "name": "solc",
    "version": "0.5.16+commit.9c3226ce.Emscripten.clang"
  },
  "schemaVersion": "3.2.3",
  "updatedAt": "2021-01-19T17:40:22.238Z",
  "networkType": "ethereum",
  "devdoc": {
    "methods": {}
  },
  "userdoc": {
    "methods": {}
  }
}