{
  "contractName": "Election",
  "abi": [
    {
      "inputs": [],
      "payable": false,
      "stateMutability": "nonpayable",
      "type": "constructor"
    },
    {
      "anonymous": false,
      "inputs": [
        {
          "indexed": true,
          "internalType": "string",
          "name": "pollId",
          "type": "string"
        },
        {
          "indexed": true,
          "internalType": "string",
          "name": "option",
          "type": "string"
        }
      ],
      "name": "voteEvent",
      "type": "event"
    },
    {
      "constant": true,
      "inputs": [],
      "name": "check",
      "outputs": [
        {
          "internalType": "bool",
          "name": "",
          "type": "bool"
        }
      ],
      "payable": false,
      "stateMutability": "view",
      "type": "function"
    },
    {
      "constant": true,
      "inputs": [],
      "name": "pollCount",
      "outputs": [
        {
          "internalType": "uint256",
          "name": "",
          "type": "uint256"
        }
      ],
      "payable": false,
      "stateMutability": "view",
      "type": "function"
    },
    {
      "constant": true,
      "inputs": [
        {
          "internalType": "uint256",
          "name": "",
          "type": "uint256"
        }
      ],
      "name": "polls",
      "outputs": [
        {
          "internalType": "uint256",
          "name": "id",
          "type": "uint256"
        },
        {
          "internalType": "string",
          "name": "pollid",
          "type": "string"
        },
        {
          "internalType": "string",
          "name": "option",
          "type": "string"
        },
        {
          "internalType": "uint256",
          "name": "voteCount",
          "type": "uint256"
        }
      ],
      "payable": false,
      "stateMutability": "view",
      "type": "function"
    },
    {
      "constant": true,
      "inputs": [
        {
          "internalType": "address",
          "name": "",
          "type": "address"
        }
      ],
      "name": "voters",
      "outputs": [
        {
          "internalType": "bool",
          "name": "",
          "type": "bool"
        }
      ],
      "payable": false,
      "stateMutability": "view",
      "type": "function"
    },
    {
      "constant": false,
      "inputs": [
        {
          "internalType": "string",
          "name": "pollid",
          "type": "string"
        },
        {
          "internalType": "string",
          "name": "option",
          "type": "string"
        }
      ],
      "name": "voted",
      "outputs": [],
      "payable": false,
      "stateMutability": "nonpayable",
      "type": "function"
    },
    {
      "constant": true,
      "inputs": [],
      "name": "getAll",
      "outputs": [
        {
          "components": [
            {
              "internalType": "uint256",
              "name": "id",
              "type": "uint256"
            },
            {
              "internalType": "string",
              "name": "pollid",
              "type": "string"
            },
            {
              "internalType": "string",
              "name": "option",
              "type": "string"
            },
            {
              "internalType": "uint256",
              "name": "voteCount",
              "type": "uint256"
            }
          ],
          "internalType": "struct Election.Poll[]",
          "name": "",
          "type": "tuple[]"
        }
      ],
      "payable": false,
      "stateMutability": "view",
      "type": "function"
    }
  ],
  "bytecode": "0x60806040526000600260006101000a81548160ff02191690831515021790555034801561002b57600080fd5b5061115b8061003b6000396000f3fe608060405234801561001057600080fd5b50600436106100625760003560e01c80634ffa00f11461006757806353ed514314610083578063919840ad146100a15780639207891d146100bf578063a3ec138d146100dd578063ac2f00741461010d575b600080fd5b610081600480360361007c9190810190610ac0565b610140565b005b61008b6105ba565b6040516100989190610e7a565b60405180910390f35b6100a96107b3565b6040516100b69190610e9c565b60405180910390f35b6100c76107c6565b6040516100d49190610ef7565b60405180910390f35b6100f760048036036100f29190810190610a97565b6107cc565b6040516101049190610e9c565b60405180910390f35b61012760048036036101229190810190610b2c565b6107ec565b6040516101379493929190610f12565b60405180910390f35b816040516020016101519190610e4c565b60405160208183030381529060405280519060200120600080600154815260200190815260200160002060010160405160200161018e9190610e63565b604051602081830303815290604052805190602001201480156102125750806040516020016101bd9190610e4c565b6040516020818303038152906040528051906020012060008060015481526020019081526020016000206002016040516020016101fa9190610e63565b60405160208183030381529060405280519060200120145b1561039b576001600260006101000a81548160ff021916908315150217905550600360003373ffffffffffffffffffffffffffffffffffffffff1673ffffffffffffffffffffffffffffffffffffffff16815260200190815260200160002060009054906101000a900460ff16156102bf576040517f08c379a00000000000000000000000000000000000000000000000000000000081526004016102b690610eb7565b60405180910390fd5b6001600360003373ffffffffffffffffffffffffffffffffffffffff1673ffffffffffffffffffffffffffffffffffffffff16815260200190815260200160002060006101000a81548160ff0219169083151502179055506000806001548152602001908152602001600020600301600081548092919060010191905055508060405161034c9190610e4c565b6040518091039020826040516103629190610e4c565b60405180910390207f46cc39a11bf2d1232634327f807e1024a1e1f78c9e44f433ebb7b7f398cc08b160405160405180910390a36105b6565b6000600260006101000a81548160ff021916908315150217905550600360003373ffffffffffffffffffffffffffffffffffffffff1673ffffffffffffffffffffffffffffffffffffffff16815260200190815260200160002060009054906101000a900460ff1615610443576040517f08c379a000000000000000000000000000000000000000000000000000000000815260040161043a90610ed7565b60405180910390fd5b6001600360003373ffffffffffffffffffffffffffffffffffffffff1673ffffffffffffffffffffffffffffffffffffffff16815260200190815260200160002060006101000a81548160ff021916908315150217905550600160008154809291906001019190505550604051806080016040528060015481526020018381526020018281526020016000815250600080600154815260200190815260200160002060008201518160000155602082015181600101908051906020019061050b92919061094c565b50604082015181600201908051906020019061052892919061094c565b50606082015181600301559050506000806001548152602001908152602001600020600301600081548092919060010191905055508060405161056b9190610e4c565b6040518091039020826040516105819190610e4c565b60405180910390207f46cc39a11bf2d1232634327f807e1024a1e1f78c9e44f433ebb7b7f398cc08b160405160405180910390a35b5050565b6060806001546040519080825280602002602001820160405280156105f957816020015b6105e66109cc565b8152602001906001900390816105de5790505b50905060008090505b6001548110156107ab57600080600083815260200190815260200160002090508060405180608001604052908160008201548152602001600182018054600181600116156101000203166002900480601f0160208091040260200160405190810160405280929190818152602001828054600181600116156101000203166002900480156106d15780601f106106a6576101008083540402835291602001916106d1565b820191906000526020600020905b8154815290600101906020018083116106b457829003601f168201915b50505050508152602001600282018054600181600116156101000203166002900480601f0160208091040260200160405190810160405280929190818152602001828054600181600116156101000203166002900480156107735780601f1061074857610100808354040283529160200191610773565b820191906000526020600020905b81548152906001019060200180831161075657829003601f168201915b5050505050815260200160038201548152505083838151811061079257fe5b6020026020010181905250508080600101915050610602565b508091505090565b600260009054906101000a900460ff1681565b60015481565b60036020528060005260406000206000915054906101000a900460ff1681565b6000602052806000526040600020600091509050806000015490806001018054600181600116156101000203166002900480601f01602080910402602001604051908101604052809291908181526020018280546001816001161561010002031660029004801561089e5780601f106108735761010080835404028352916020019161089e565b820191906000526020600020905b81548152906001019060200180831161088157829003601f168201915b505050505090806002018054600181600116156101000203166002900480601f01602080910402602001604051908101604052809291908181526020018280546001816001161561010002031660029004801561093c5780601f106109115761010080835404028352916020019161093c565b820191906000526020600020905b81548152906001019060200180831161091f57829003601f168201915b5050505050908060030154905084565b828054600181600116156101000203166002900490600052602060002090601f016020900481019282601f1061098d57805160ff19168380011785556109bb565b828001600101855582156109bb579182015b828111156109ba57825182559160200191906001019061099f565b5b5090506109c891906109f4565b5090565b6040518060800160405280600081526020016060815260200160608152602001600081525090565b610a1691905b80821115610a125760008160009055506001016109fa565b5090565b90565b600081359050610a28816110ea565b92915050565b600082601f830112610a3f57600080fd5b8135610a52610a4d82610f92565b610f65565b91508082526020830160208301858383011115610a6e57600080fd5b610a79838284611097565b50505092915050565b600081359050610a9181611101565b92915050565b600060208284031215610aa957600080fd5b6000610ab784828501610a19565b91505092915050565b60008060408385031215610ad357600080fd5b600083013567ffffffffffffffff811115610aed57600080fd5b610af985828601610a2e565b925050602083013567ffffffffffffffff811115610b1657600080fd5b610b2285828601610a2e565b9150509250929050565b600060208284031215610b3e57600080fd5b6000610b4c84828501610a82565b91505092915050565b6000610b618383610dc4565b905092915050565b6000610b7482610fe3565b610b7e8185611011565b935083602082028501610b9085610fbe565b8060005b85811015610bcc5784840389528151610bad8582610b55565b9450610bb883611004565b925060208a01995050600181019050610b94565b50829750879550505050505092915050565b610be781611061565b82525050565b6000610bf882610ff9565b610c028185611044565b9350610c128185602086016110a6565b80840191505092915050565b6000610c2982610fee565b610c338185611022565b9350610c438185602086016110a6565b610c4c816110d9565b840191505092915050565b6000610c6282610fee565b610c6c8185611033565b9350610c7c8185602086016110a6565b610c85816110d9565b840191505092915050565b600081546001811660008114610cad5760018114610cd257610d16565b607f6002830416610cbe8187611044565b955060ff1983168652808601935050610d16565b60028204610ce08187611044565b9550610ceb85610fce565b60005b82811015610d0d57815481890152600182019150602081019050610cee565b82880195505050505b505092915050565b6000610d2b602383611033565b91507f4d6573736167652066726f6d20536f6c696469747920747248656c6c6f20576f60008301527f726c6400000000000000000000000000000000000000000000000000000000006020830152604082019050919050565b6000610d91601283611033565b91507f5573657220416c726561647920566f74656400000000000000000000000000006000830152602082019050919050565b6000608083016000830151610ddc6000860182610e2e565b5060208301518482036020860152610df48282610c1e565b91505060408301518482036040860152610e0e8282610c1e565b9150506060830151610e236060860182610e2e565b508091505092915050565b610e378161108d565b82525050565b610e468161108d565b82525050565b6000610e588284610bed565b915081905092915050565b6000610e6f8284610c90565b915081905092915050565b60006020820190508181036000830152610e948184610b69565b905092915050565b6000602082019050610eb16000830184610bde565b92915050565b60006020820190508181036000830152610ed081610d1e565b9050919050565b60006020820190508181036000830152610ef081610d84565b9050919050565b6000602082019050610f0c6000830184610e3d565b92915050565b6000608082019050610f276000830187610e3d565b8181036020830152610f398186610c57565b90508181036040830152610f4d8185610c57565b9050610f5c6060830184610e3d565b95945050505050565b6000604051905081810181811067ffffffffffffffff82111715610f8857600080fd5b8060405250919050565b600067ffffffffffffffff821115610fa957600080fd5b601f19601f8301169050602081019050919050565b6000819050602082019050919050565b60008190508160005260206000209050919050565b600081519050919050565b600081519050919050565b600081519050919050565b6000602082019050919050565b600082825260208201905092915050565b600082825260208201905092915050565b600082825260208201905092915050565b600081905092915050565b600061105a8261106d565b9050919050565b60008115159050919050565b600073ffffffffffffffffffffffffffffffffffffffff82169050919050565b6000819050919050565b82818337600083830152505050565b60005b838110156110c45780820151818401526020810190506110a9565b838111156110d3576000848401525b50505050565b6000601f19601f8301169050919050565b6110f38161104f565b81146110fe57600080fd5b50565b61110a8161108d565b811461111557600080fd5b5056fea365627a7a723158203b6968af5f0c0b92f899534fa8cecc79f9579b30b6a567de99881bbf4adfd2ce6c6578706572696d656e74616cf564736f6c63430005100040",
  "source": "pragma solidity ^0.5.16;\npragma experimental ABIEncoderV2;\n\n// import \"@nomiclabs/builder/console.sol\";\n\ncontract Election {\n    // Model a Candidate\n   \n    struct Poll {\n        uint256 id;\n        string pollid;\n        string option;\n        uint256 voteCount;\n    }\n\n    // mapping(address => bool) public voters;\n    mapping(uint256 => Poll) public polls;\n    uint256 public pollCount;\n    bool public check=false;\n\n\n    event voteEvent(string indexed pollId, string indexed option);\n\n    function voted(string memory pollid, string memory option) public\n    {\n        if(keccak256(abi.encodePacked((polls[pollCount].pollid))) == keccak256(abi.encodePacked((pollid))) && (keccak256(abi.encodePacked(polls[pollCount].option)) == (keccak256(abi.encodePacked(option)))))\n        {\n            check = true;\n            require(!voters[msg.sender], \"Message from Solidity trHello World\");\n            voters[msg.sender] = true;\n              \n            polls[pollCount].voteCount ++;\n            emit voteEvent(pollid,option);\n\n        } else {\n            check = false;\n            require(!voters[msg.sender], \"User Already Voted\");\n            voters[msg.sender] = true;\n            pollCount++;\n            polls[pollCount]= Poll(pollCount, pollid, option,0);\n            polls[pollCount].voteCount ++;\n            emit voteEvent(pollid,option);\n        }\n\n        \n    }\n\n\n    function getAll() public view returns (Poll[] memory){\n\n        Poll [] memory myPoll = new Poll[](pollCount);\n        for (uint256 i = 0 ; i <pollCount; i++)    {\n            Poll storage pol = polls[i];\n            myPoll[i] = pol;\n        }\n        return myPoll;\n    }        \n\n    // Store accounts that have voted\n    mapping(address => bool) public voters;\n    // Store Candidates\n    // Fetch Candidate\n\n\n\n    constructor() public {\n        \n    }\n\n\n   \n}\n",
  "sourcePath": "/home/zara/Documents/Frontend-Vlock/contracts/Election.sol",
  "compiler": {
    "name": "solc",
    "version": "0.5.16+commit.9c3226ce.Emscripten.clang"
  },
  "schemaVersion": "3.2.3",
  "updatedAt": "2021-01-04T16:12:43.296Z",
  "networkType": "ethereum",
  "devdoc": {
    "methods": {}
  },
  "userdoc": {
    "methods": {}
  }
}