{
  "contractName": "Election",
  "abi": [
    {
      "inputs": [],
      "payable": false,
      "stateMutability": "nonpayable",
      "type": "constructor"
    },
    {
      "anonymous": false,
      "inputs": [
        {
          "indexed": true,
          "internalType": "string",
          "name": "pollId",
          "type": "string"
        },
        {
          "indexed": true,
          "internalType": "string",
          "name": "option",
          "type": "string"
        }
      ],
      "name": "votedEvent",
      "type": "event"
    },
    {
      "constant": true,
      "inputs": [],
      "name": "check",
      "outputs": [
        {
          "internalType": "bool",
          "name": "",
          "type": "bool"
        }
      ],
      "payable": false,
      "stateMutability": "view",
      "type": "function"
    },
    {
      "constant": true,
      "inputs": [],
      "name": "pollCount",
      "outputs": [
        {
          "internalType": "uint256",
          "name": "",
          "type": "uint256"
        }
      ],
      "payable": false,
      "stateMutability": "view",
      "type": "function"
    },
    {
      "constant": true,
      "inputs": [
        {
          "internalType": "uint256",
          "name": "",
          "type": "uint256"
        }
      ],
      "name": "polls",
      "outputs": [
        {
          "internalType": "uint256",
          "name": "id",
          "type": "uint256"
        },
        {
          "internalType": "string",
          "name": "pollid",
          "type": "string"
        },
        {
          "internalType": "string",
          "name": "option",
          "type": "string"
        },
        {
          "internalType": "uint256",
          "name": "voteCount",
          "type": "uint256"
        }
      ],
      "payable": false,
      "stateMutability": "view",
      "type": "function"
    },
    {
      "constant": true,
      "inputs": [],
      "name": "voterExist",
      "outputs": [
        {
          "internalType": "bool",
          "name": "",
          "type": "bool"
        }
      ],
      "payable": false,
      "stateMutability": "view",
      "type": "function"
    },
    {
      "constant": true,
      "inputs": [
        {
          "internalType": "address",
          "name": "",
          "type": "address"
        }
      ],
      "name": "voters",
      "outputs": [
        {
          "internalType": "bool",
          "name": "",
          "type": "bool"
        }
      ],
      "payable": false,
      "stateMutability": "view",
      "type": "function"
    },
    {
      "constant": false,
      "inputs": [
        {
          "internalType": "string",
          "name": "pollid",
          "type": "string"
        },
        {
          "internalType": "string",
          "name": "option",
          "type": "string"
        }
      ],
      "name": "vote",
      "outputs": [],
      "payable": false,
      "stateMutability": "nonpayable",
      "type": "function"
    },
    {
      "constant": true,
      "inputs": [],
      "name": "getAll",
      "outputs": [
        {
          "components": [
            {
              "internalType": "uint256",
              "name": "id",
              "type": "uint256"
            },
            {
              "internalType": "string",
              "name": "pollid",
              "type": "string"
            },
            {
              "internalType": "string",
              "name": "option",
              "type": "string"
            },
            {
              "internalType": "uint256",
              "name": "voteCount",
              "type": "uint256"
            },
            {
              "internalType": "address[]",
              "name": "voter",
              "type": "address[]"
            }
          ],
          "internalType": "struct Election.Poll[]",
          "name": "",
          "type": "tuple[]"
        }
      ],
      "payable": false,
      "stateMutability": "view",
      "type": "function"
    }
  ],
  "bytecode": "0x60806040526000600360006101000a81548160ff0219169083151502179055506000600360016101000a81548160ff02191690831515021790555034801561004657600080fd5b50611318806100566000396000f3fe608060405234801561001057600080fd5b506004361061007d5760003560e01c8063a3ec138d1161005b578063a3ec138d146100dc578063ac2f00741461010c578063baca9b871461013f578063e8d5940d1461015d5761007d565b806353ed514314610082578063919840ad146100a05780639207891d146100be575b600080fd5b61008a610179565b604051610097919061101e565b60405180910390f35b6100a8610401565b6040516100b59190611040565b60405180910390f35b6100c6610414565b6040516100d3919061107b565b60405180910390f35b6100f660048036036100f19190810190610c02565b61041a565b6040516101039190611040565b60405180910390f35b61012660048036036101219190810190610c97565b61043a565b6040516101369493929190611096565b60405180910390f35b61014761059a565b6040516101549190611040565b60405180910390f35b61017760048036036101729190810190610c2b565b6105ad565b005b6060806002546040519080825280602002602001820160405280156101b857816020015b6101a5610ab0565b81526020019060019003908161019d5790505b50905060008090505b6002548110156103f9576000600160008381526020019081526020016000209050806040518060a001604052908160008201548152602001600182018054600181600116156101000203166002900480601f0160208091040260200160405190810160405280929190818152602001828054600181600116156101000203166002900480156102915780601f1061026657610100808354040283529160200191610291565b820191906000526020600020905b81548152906001019060200180831161027457829003601f168201915b50505050508152602001600282018054600181600116156101000203166002900480601f0160208091040260200160405190810160405280929190818152602001828054600181600116156101000203166002900480156103335780601f1061030857610100808354040283529160200191610333565b820191906000526020600020905b81548152906001019060200180831161031657829003601f168201915b5050505050815260200160038201548152602001600482018054806020026020016040519081016040528092919081815260200182805480156103cb57602002820191906000526020600020905b8160009054906101000a900473ffffffffffffffffffffffffffffffffffffffff1673ffffffffffffffffffffffffffffffffffffffff1681526020019060010190808311610381575b5050505050815250508383815181106103e057fe5b60200260200101819052505080806001019150506101c1565b508091505090565b600360009054906101000a900460ff1681565b60025481565b60006020528060005260406000206000915054906101000a900460ff1681565b6001602052806000526040600020600091509050806000015490806001018054600181600116156101000203166002900480601f0160208091040260200160405190810160405280929190818152602001828054600181600116156101000203166002900480156104ec5780601f106104c1576101008083540402835291602001916104ec565b820191906000526020600020905b8154815290600101906020018083116104cf57829003601f168201915b505050505090806002018054600181600116156101000203166002900480601f01602080910402602001604051908101604052809291908181526020018280546001816001161561010002031660029004801561058a5780601f1061055f5761010080835404028352916020019161058a565b820191906000526020600020905b81548152906001019060200180831161056d57829003601f168201915b5050505050908060030154905084565b600360019054906101000a900460ff1681565b816040516020016105be9190610ff0565b604051602081830303815290604052805190602001206001600060025481526020019081526020016000206001016040516020016105fc9190611007565b6040516020818303038152906040528051906020012014801561068157508060405160200161062b9190610ff0565b604051602081830303815290604052805190602001206001600060025481526020019081526020016000206002016040516020016106699190611007565b60405160208183030381529060405280519060200120145b156108eb5760008090505b600160006002548152602001908152602001600020600401805490508110156108e5573373ffffffffffffffffffffffffffffffffffffffff1660016000600254815260200190815260200160002060040182815481106106e957fe5b9060005260206000200160009054906101000a900473ffffffffffffffffffffffffffffffffffffffff1673ffffffffffffffffffffffffffffffffffffffff161415610833576001600360016101000a81548160ff02191690831515021790555060016000803373ffffffffffffffffffffffffffffffffffffffff1673ffffffffffffffffffffffffffffffffffffffff16815260200190815260200160002060006101000a81548160ff0219169083151502179055506000803373ffffffffffffffffffffffffffffffffffffffff1673ffffffffffffffffffffffffffffffffffffffff16815260200190815260200160002060009054906101000a900460ff161561082e576040517f08c379a00000000000000000000000000000000000000000000000000000000081526004016108259061105b565b60405180910390fd5b6108d8565b6001600060025481526020019081526020016000206004013390806001815401808255809150509060018203906000526020600020016000909192909190916101000a81548173ffffffffffffffffffffffffffffffffffffffff021916908373ffffffffffffffffffffffffffffffffffffffff16021790555050600160006002548152602001908152602001600020600301600081548092919060010191905055505b808060010191505061068c565b50610aac565b6000600360006101000a81548160ff02191690831515021790555060026000815480929190600101919050555060025460016000600254815260200190815260200160002060000181905550816001600060025481526020019081526020016000206001019080519060200190610963929190610adf565b50806001600060025481526020019081526020016000206002019080519060200190610990929190610adf565b506000600160006002548152602001908152602001600020600301819055506001600060025481526020019081526020016000206004013390806001815401808255809150509060018203906000526020600020016000909192909190916101000a81548173ffffffffffffffffffffffffffffffffffffffff021916908373ffffffffffffffffffffffffffffffffffffffff160217905550506001600060025481526020019081526020016000206003016000815480929190600101919050555080604051610a619190610ff0565b604051809103902082604051610a779190610ff0565b60405180910390207fb72bc004d3c880dde5aa3e326a8cd34deb7b664a4eccf90d78bce917dce6964f60405160405180910390a35b5050565b6040518060a0016040528060008152602001606081526020016060815260200160008152602001606081525090565b828054600181600116156101000203166002900490600052602060002090601f016020900481019282601f10610b2057805160ff1916838001178555610b4e565b82800160010185558215610b4e579182015b82811115610b4d578251825591602001919060010190610b32565b5b509050610b5b9190610b5f565b5090565b610b8191905b80821115610b7d576000816000905550600101610b65565b5090565b90565b600081359050610b93816112a7565b92915050565b600082601f830112610baa57600080fd5b8135610bbd610bb882611116565b6110e9565b91508082526020830160208301858383011115610bd957600080fd5b610be4838284611254565b50505092915050565b600081359050610bfc816112be565b92915050565b600060208284031215610c1457600080fd5b6000610c2284828501610b84565b91505092915050565b60008060408385031215610c3e57600080fd5b600083013567ffffffffffffffff811115610c5857600080fd5b610c6485828601610b99565b925050602083013567ffffffffffffffff811115610c8157600080fd5b610c8d85828601610b99565b9150509250929050565b600060208284031215610ca957600080fd5b6000610cb784828501610bed565b91505092915050565b6000610ccc8383610cec565b60208301905092915050565b6000610ce48383610f4e565b905092915050565b610cf58161120c565b82525050565b6000610d0682611177565b610d1081856111bd565b9350610d1b83611142565b8060005b83811015610d4c578151610d338882610cc0565b9750610d3e836111a3565b925050600181019050610d1f565b5085935050505092915050565b6000610d6482611182565b610d6e81856111ce565b935083602082028501610d8085611152565b8060005b85811015610dbc5784840389528151610d9d8582610cd8565b9450610da8836111b0565b925060208a01995050600181019050610d84565b50829750879550505050505092915050565b610dd78161121e565b82525050565b6000610de882611198565b610df28185611201565b9350610e02818560208601611263565b80840191505092915050565b6000610e198261118d565b610e2381856111df565b9350610e33818560208601611263565b610e3c81611296565b840191505092915050565b6000610e528261118d565b610e5c81856111f0565b9350610e6c818560208601611263565b610e7581611296565b840191505092915050565b600081546001811660008114610e9d5760018114610ec257610f06565b607f6002830416610eae8187611201565b955060ff1983168652808601935050610f06565b60028204610ed08187611201565b9550610edb85611162565b60005b82811015610efd57815481890152600182019150602081019050610ede565b82880195505050505b505092915050565b6000610f1b6013836111f0565b91507f5573657220416c726561647920566f74656420000000000000000000000000006000830152602082019050919050565b600060a083016000830151610f666000860182610fd2565b5060208301518482036020860152610f7e8282610e0e565b91505060408301518482036040860152610f988282610e0e565b9150506060830151610fad6060860182610fd2565b5060808301518482036080860152610fc58282610cfb565b9150508091505092915050565b610fdb8161124a565b82525050565b610fea8161124a565b82525050565b6000610ffc8284610ddd565b915081905092915050565b60006110138284610e80565b915081905092915050565b600060208201905081810360008301526110388184610d59565b905092915050565b60006020820190506110556000830184610dce565b92915050565b6000602082019050818103600083015261107481610f0e565b9050919050565b60006020820190506110906000830184610fe1565b92915050565b60006080820190506110ab6000830187610fe1565b81810360208301526110bd8186610e47565b905081810360408301526110d18185610e47565b90506110e06060830184610fe1565b95945050505050565b6000604051905081810181811067ffffffffffffffff8211171561110c57600080fd5b8060405250919050565b600067ffffffffffffffff82111561112d57600080fd5b601f19601f8301169050602081019050919050565b6000819050602082019050919050565b6000819050602082019050919050565b60008190508160005260206000209050919050565b600081519050919050565b600081519050919050565b600081519050919050565b600081519050919050565b6000602082019050919050565b6000602082019050919050565b600082825260208201905092915050565b600082825260208201905092915050565b600082825260208201905092915050565b600082825260208201905092915050565b600081905092915050565b60006112178261122a565b9050919050565b60008115159050919050565b600073ffffffffffffffffffffffffffffffffffffffff82169050919050565b6000819050919050565b82818337600083830152505050565b60005b83811015611281578082015181840152602081019050611266565b83811115611290576000848401525b50505050565b6000601f19601f8301169050919050565b6112b08161120c565b81146112bb57600080fd5b50565b6112c78161124a565b81146112d257600080fd5b5056fea365627a7a72315820c990b2caada22c264e255f2136c26e409939768841c00550c992b111eba032b36c6578706572696d656e74616cf564736f6c63430005100040",
  "source": "pragma solidity ^0.5.16;\npragma experimental ABIEncoderV2;\ncontract Election {\n// Model a Candidate\nstruct Poll {\nuint256 id;\nstring pollid;\nstring option;\nuint256 voteCount;\naddress [] voter;\n}\n\nmapping(address => bool) public voters;\nmapping(uint256 => Poll) public polls;\n\nuint256 public pollCount;\nconstructor() public {\n \n}\n\nbool public check=false;\nbool public voterExist= false;\n\n\n\nevent votedEvent(string indexed pollId, string indexed option);\n\nfunction vote(string memory pollid, string memory option) public\n{\n\n\nif(keccak256(abi.encodePacked((polls[pollCount].pollid))) == keccak256(abi.encodePacked((pollid)))\n\n&& (keccak256(abi.encodePacked(polls[pollCount].option)) == (keccak256(abi.encodePacked(option))))  )\n{\n    for(uint256 i=0; i<polls[pollCount].voter.length; i++){\n    if(polls[pollCount].voter[i]==msg.sender){\n  \n       voterExist= true;\n       voters[msg.sender]=true;\n       require(!voters[msg.sender], \"User Already Voted \");\n\n    }\n    else\n     {\n         polls[pollCount].voter.push(msg.sender);\n         polls[pollCount].voteCount ++;\n         // here neeed to store id and suser\n     }\n    }\n}\n\nelse\n\n{\n//stonedetailsTable[0].stoneidsbycutter.push(\"hello\");\n\ncheck = false;\npollCount++;\npolls[pollCount].id= pollCount;\npolls[pollCount].pollid= pollid;\npolls[pollCount].option= option;\npolls[pollCount].voteCount= 0;\npolls[pollCount].voter.push(msg.sender);\npolls[pollCount].voteCount ++;\nemit votedEvent(pollid,option);\n\n}\n\n}\n\n\nfunction getAll() public view returns (Poll[] memory){\n\n   Poll [] memory myPoll = new Poll[](pollCount);\n     for (uint256 i = 0 ; i <pollCount; i++)\n     {\n        Poll storage pol = polls[i];\n        myPoll[i] = pol;\n       }\n             return myPoll;\n    \n    \n}\n\n\n\n\n}",
  "sourcePath": "/home/zara/Documents/Frontend-Vlock/contracts/Election.sol",
  "compiler": {
    "name": "solc",
    "version": "0.5.16+commit.9c3226ce.Emscripten.clang"
  },
  "schemaVersion": "3.2.3",
  "updatedAt": "2021-01-07T14:48:38.097Z",
  "networkType": "ethereum",
  "devdoc": {
    "methods": {}
  },
  "userdoc": {
    "methods": {}
  }
}