{
  "contractName": "Election",
  "abi": [
    {
      "inputs": [],
      "payable": false,
      "stateMutability": "nonpayable",
      "type": "constructor"
    },
    {
      "anonymous": false,
      "inputs": [
        {
          "indexed": true,
          "internalType": "string",
          "name": "pollId",
          "type": "string"
        },
        {
          "indexed": true,
          "internalType": "string",
          "name": "option",
          "type": "string"
        }
      ],
      "name": "votedEvent",
      "type": "event"
    },
    {
      "constant": true,
      "inputs": [],
      "name": "check",
      "outputs": [
        {
          "internalType": "bool",
          "name": "",
          "type": "bool"
        }
      ],
      "payable": false,
      "stateMutability": "view",
      "type": "function"
    },
    {
      "constant": true,
      "inputs": [],
      "name": "pollCount",
      "outputs": [
        {
          "internalType": "uint256",
          "name": "",
          "type": "uint256"
        }
      ],
      "payable": false,
      "stateMutability": "view",
      "type": "function"
    },
    {
      "constant": true,
      "inputs": [
        {
          "internalType": "uint256",
          "name": "",
          "type": "uint256"
        }
      ],
      "name": "polls",
      "outputs": [
        {
          "internalType": "uint256",
          "name": "id",
          "type": "uint256"
        },
        {
          "internalType": "string",
          "name": "pollid",
          "type": "string"
        },
        {
          "internalType": "string",
          "name": "option",
          "type": "string"
        },
        {
          "internalType": "uint256",
          "name": "voteCount",
          "type": "uint256"
        }
      ],
      "payable": false,
      "stateMutability": "view",
      "type": "function"
    },
    {
      "constant": true,
      "inputs": [
        {
          "internalType": "uint256",
          "name": "",
          "type": "uint256"
        }
      ],
      "name": "proposals",
      "outputs": [
        {
          "internalType": "string",
          "name": "pollid",
          "type": "string"
        },
        {
          "internalType": "address",
          "name": "voter",
          "type": "address"
        }
      ],
      "payable": false,
      "stateMutability": "view",
      "type": "function"
    },
    {
      "constant": true,
      "inputs": [],
      "name": "voterExist",
      "outputs": [
        {
          "internalType": "bool",
          "name": "",
          "type": "bool"
        }
      ],
      "payable": false,
      "stateMutability": "view",
      "type": "function"
    },
    {
      "constant": true,
      "inputs": [
        {
          "internalType": "address",
          "name": "",
          "type": "address"
        }
      ],
      "name": "voters",
      "outputs": [
        {
          "internalType": "bool",
          "name": "",
          "type": "bool"
        }
      ],
      "payable": false,
      "stateMutability": "view",
      "type": "function"
    },
    {
      "constant": false,
      "inputs": [
        {
          "internalType": "string",
          "name": "pollid",
          "type": "string"
        },
        {
          "internalType": "string",
          "name": "option",
          "type": "string"
        }
      ],
      "name": "vote",
      "outputs": [],
      "payable": false,
      "stateMutability": "nonpayable",
      "type": "function"
    },
    {
      "constant": true,
      "inputs": [],
      "name": "getAll",
      "outputs": [
        {
          "components": [
            {
              "internalType": "uint256",
              "name": "id",
              "type": "uint256"
            },
            {
              "internalType": "string",
              "name": "pollid",
              "type": "string"
            },
            {
              "internalType": "string",
              "name": "option",
              "type": "string"
            },
            {
              "internalType": "uint256",
              "name": "voteCount",
              "type": "uint256"
            }
          ],
          "internalType": "struct Election.Poll[]",
          "name": "",
          "type": "tuple[]"
        }
      ],
      "payable": false,
      "stateMutability": "view",
      "type": "function"
    }
  ],
  "bytecode": "0x60806040526000600460006101000a81548160ff0219169083151502179055506000600460016101000a81548160ff02191690831515021790555034801561004657600080fd5b50611508806100566000396000f3fe608060405234801561001057600080fd5b50600436106100885760003560e01c8063a3ec138d1161005b578063a3ec138d14610118578063ac2f007414610148578063baca9b871461017b578063e8d5940d1461019957610088565b8063013cf08b1461008d57806353ed5143146100be578063919840ad146100dc5780639207891d146100fa575b600080fd5b6100a760048036036100a29190810190610ec0565b6101b5565b6040516100b5929190611234565b60405180910390f35b6100c661029e565b6040516100d391906111f7565b60405180910390f35b6100e46104dc565b6040516100f19190611219565b60405180910390f35b6101026104ef565b60405161010f91906112a4565b60405180910390f35b610132600480360361012d9190810190610e2b565b6104f5565b60405161013f9190611219565b60405180910390f35b610162600480360361015d9190810190610ec0565b610515565b60405161017294939291906112bf565b60405180910390f35b610183610675565b6040516101909190611219565b60405180910390f35b6101b360048036036101ae9190810190610e54565b610688565b005b600081815481106101c257fe5b9060005260206000209060020201600091509050806000018054600181600116156101000203166002900480601f01602080910402602001604051908101604052809291908181526020018280546001816001161561010002031660029004801561026e5780601f106102435761010080835404028352916020019161026e565b820191906000526020600020905b81548152906001019060200180831161025157829003601f168201915b5050505050908060010160009054906101000a900473ffffffffffffffffffffffffffffffffffffffff16905082565b6060806003546040519080825280602002602001820160405280156102dd57816020015b6102ca610c60565b8152602001906001900390816102c25790505b50905060008090505b6003548110156104905760006002600083815260200190815260200160002090508060405180608001604052908160008201548152602001600182018054600181600116156101000203166002900480601f0160208091040260200160405190810160405280929190818152602001828054600181600116156101000203166002900480156103b65780601f1061038b576101008083540402835291602001916103b6565b820191906000526020600020905b81548152906001019060200180831161039957829003601f168201915b50505050508152602001600282018054600181600116156101000203166002900480601f0160208091040260200160405190810160405280929190818152602001828054600181600116156101000203166002900480156104585780601f1061042d57610100808354040283529160200191610458565b820191906000526020600020905b81548152906001019060200180831161043b57829003601f168201915b5050505050815260200160038201548152505083838151811061047757fe5b60200260200101819052505080806001019150506102e6565b5060008151116104d5576040517f08c379a00000000000000000000000000000000000000000000000000000000081526004016104cc90611284565b60405180910390fd5b8091505090565b600460009054906101000a900460ff1681565b60035481565b60016020528060005260406000206000915054906101000a900460ff1681565b6002602052806000526040600020600091509050806000015490806001018054600181600116156101000203166002900480601f0160208091040260200160405190810160405280929190818152602001828054600181600116156101000203166002900480156105c75780601f1061059c576101008083540402835291602001916105c7565b820191906000526020600020905b8154815290600101906020018083116105aa57829003601f168201915b505050505090806002018054600181600116156101000203166002900480601f0160208091040260200160405190810160405280929190818152602001828054600181600116156101000203166002900480156106655780601f1061063a57610100808354040283529160200191610665565b820191906000526020600020905b81548152906001019060200180831161064857829003601f168201915b5050505050908060030154905084565b600460019054906101000a900460ff1681565b60008090505b60008054905081101561089257826040516020016106ac91906111c9565b60405160208183030381529060405280519060200120600082815481106106cf57fe5b90600052602060002090600202016000016040516020016106f091906111e0565b6040516020818303038152906040528051906020012014801561077c57503373ffffffffffffffffffffffffffffffffffffffff166000828154811061073257fe5b906000526020600020906002020160010160009054906101000a900473ffffffffffffffffffffffffffffffffffffffff1673ffffffffffffffffffffffffffffffffffffffff16145b15610885576001600460016101000a81548160ff02191690831515021790555060018060003373ffffffffffffffffffffffffffffffffffffffff1673ffffffffffffffffffffffffffffffffffffffff16815260200190815260200160002060006101000a81548160ff021916908315150217905550600160003373ffffffffffffffffffffffffffffffffffffffff1673ffffffffffffffffffffffffffffffffffffffff16815260200190815260200160002060009054906101000a900460ff1615610880576040517f08c379a000000000000000000000000000000000000000000000000000000000815260040161087790611264565b60405180910390fd5b610892565b808060010191505061068e565b50816040516020016108a491906111c9565b604051602081830303815290604052805190602001206002600060035481526020019081526020016000206001016040516020016108e291906111e0565b6040516020818303038152906040528051906020012014801561096757508060405160200161091191906111c9565b6040516020818303038152906040528051906020012060026000600354815260200190815260200160002060020160405160200161094f91906111e0565b60405160208183030381529060405280519060200120145b15610a585760026000600354815260200190815260200160002060030160008154809291906001019190505550600060405180604001604052808481526020013373ffffffffffffffffffffffffffffffffffffffff16815250908060018154018082558091505090600182039060005260206000209060020201600090919290919091506000820151816000019080519060200190610a08929190610c88565b5060208201518160010160006101000a81548173ffffffffffffffffffffffffffffffffffffffff021916908373ffffffffffffffffffffffffffffffffffffffff160217905550505050610c5c565b6000600460006101000a81548160ff021916908315150217905550600060405180604001604052808481526020013373ffffffffffffffffffffffffffffffffffffffff16815250908060018154018082558091505090600182039060005260206000209060020201600090919290919091506000820151816000019080519060200190610ae7929190610c88565b5060208201518160010160006101000a81548173ffffffffffffffffffffffffffffffffffffffff021916908373ffffffffffffffffffffffffffffffffffffffff16021790555050505060036000815480929190600101919050555060035460026000600354815260200190815260200160002060000181905550816002600060035481526020019081526020016000206001019080519060200190610b8f929190610d08565b50806002600060035481526020019081526020016000206002019080519060200190610bbc929190610d08565b506000600260006003548152602001908152602001600020600301819055506002600060035481526020019081526020016000206003016000815480929190600101919050555080604051610c1191906111c9565b604051809103902082604051610c2791906111c9565b60405180910390207fb72bc004d3c880dde5aa3e326a8cd34deb7b664a4eccf90d78bce917dce6964f60405160405180910390a35b5050565b6040518060800160405280600081526020016060815260200160608152602001600081525090565b828054600181600116156101000203166002900490600052602060002090601f016020900481019282601f10610cc957805160ff1916838001178555610cf7565b82800160010185558215610cf7579182015b82811115610cf6578251825591602001919060010190610cdb565b5b509050610d049190610d88565b5090565b828054600181600116156101000203166002900490600052602060002090601f016020900481019282601f10610d4957805160ff1916838001178555610d77565b82800160010185558215610d77579182015b82811115610d76578251825591602001919060010190610d5b565b5b509050610d849190610d88565b5090565b610daa91905b80821115610da6576000816000905550600101610d8e565b5090565b90565b600081359050610dbc81611497565b92915050565b600082601f830112610dd357600080fd5b8135610de6610de18261133f565b611312565b91508082526020830160208301858383011115610e0257600080fd5b610e0d838284611444565b50505092915050565b600081359050610e25816114ae565b92915050565b600060208284031215610e3d57600080fd5b6000610e4b84828501610dad565b91505092915050565b60008060408385031215610e6757600080fd5b600083013567ffffffffffffffff811115610e8157600080fd5b610e8d85828601610dc2565b925050602083013567ffffffffffffffff811115610eaa57600080fd5b610eb685828601610dc2565b9150509250929050565b600060208284031215610ed257600080fd5b6000610ee084828501610e16565b91505092915050565b6000610ef58383611141565b905092915050565b610f06816113fc565b82525050565b6000610f1782611390565b610f2181856113be565b935083602082028501610f338561136b565b8060005b85811015610f6f5784840389528151610f508582610ee9565b9450610f5b836113b1565b925060208a01995050600181019050610f37565b50829750879550505050505092915050565b610f8a8161140e565b82525050565b6000610f9b826113a6565b610fa581856113f1565b9350610fb5818560208601611453565b80840191505092915050565b6000610fcc8261139b565b610fd681856113cf565b9350610fe6818560208601611453565b610fef81611486565b840191505092915050565b60006110058261139b565b61100f81856113e0565b935061101f818560208601611453565b61102881611486565b840191505092915050565b6000815460018116600081146110505760018114611075576110b9565b607f600283041661106181876113f1565b955060ff19831686528086019350506110b9565b6002820461108381876113f1565b955061108e8561137b565b60005b828110156110b057815481890152600182019150602081019050611091565b82880195505050505b505092915050565b60006110ce6013836113e0565b91507f5573657220416c726561647920566f74656420000000000000000000000000006000830152602082019050919050565b600061110e600c836113e0565b91507f506f6c6c206c656e6774682000000000000000000000000000000000000000006000830152602082019050919050565b600060808301600083015161115960008601826111ab565b50602083015184820360208601526111718282610fc1565b9150506040830151848203604086015261118b8282610fc1565b91505060608301516111a060608601826111ab565b508091505092915050565b6111b48161143a565b82525050565b6111c38161143a565b82525050565b60006111d58284610f90565b915081905092915050565b60006111ec8284611033565b915081905092915050565b600060208201905081810360008301526112118184610f0c565b905092915050565b600060208201905061122e6000830184610f81565b92915050565b6000604082019050818103600083015261124e8185610ffa565b905061125d6020830184610efd565b9392505050565b6000602082019050818103600083015261127d816110c1565b9050919050565b6000602082019050818103600083015261129d81611101565b9050919050565b60006020820190506112b960008301846111ba565b92915050565b60006080820190506112d460008301876111ba565b81810360208301526112e68186610ffa565b905081810360408301526112fa8185610ffa565b905061130960608301846111ba565b95945050505050565b6000604051905081810181811067ffffffffffffffff8211171561133557600080fd5b8060405250919050565b600067ffffffffffffffff82111561135657600080fd5b601f19601f8301169050602081019050919050565b6000819050602082019050919050565b60008190508160005260206000209050919050565b600081519050919050565b600081519050919050565b600081519050919050565b6000602082019050919050565b600082825260208201905092915050565b600082825260208201905092915050565b600082825260208201905092915050565b600081905092915050565b60006114078261141a565b9050919050565b60008115159050919050565b600073ffffffffffffffffffffffffffffffffffffffff82169050919050565b6000819050919050565b82818337600083830152505050565b60005b83811015611471578082015181840152602081019050611456565b83811115611480576000848401525b50505050565b6000601f19601f8301169050919050565b6114a0816113fc565b81146114ab57600080fd5b50565b6114b78161143a565b81146114c257600080fd5b5056fea365627a7a723158200d5cd50f4dd864805a886056d63f5a7bb714894baff95b39a2b26bc5392b97276c6578706572696d656e74616cf564736f6c63430005100040",
  "source": "pragma solidity ^0.5.16;\npragma experimental ABIEncoderV2;\n\ncontract Election {\n    // Model a Candidate\n    struct Poll {\n        uint256 id;\n        string pollid;\n        string option;\n        uint256 voteCount;\n    }\n\n    struct Verification{\n      string pollid;\n      address voter;\n    }\n    \n        Verification[] public proposals;\n\n    mapping(address => bool) public voters;\n    mapping(uint256 => Poll) public polls;\n \n\n    uint256 public pollCount;\n\n    constructor() public {}\n\n    bool public check = false;\n    bool public voterExist = false;\n\n    event votedEvent(string indexed pollId, string indexed option);\n\n    function vote(string memory pollid, string memory option) public {\n   \n         for (uint p = 0; p < proposals.length; p++) {\n            if(  keccak256(abi.encodePacked((proposals[p].pollid))) ==\n            keccak256(abi.encodePacked((pollid)))  &&   proposals[p].voter == msg.sender)\n             {\n                     voterExist= true;\n                      voters[msg.sender]=true;\n                      require(!voters[msg.sender], \"User Already Voted \");\n                      break;\n            }\n        }\n      \nif(keccak256(abi.encodePacked((polls[pollCount].pollid))) == keccak256(abi.encodePacked((pollid)))\n\n&& (keccak256(abi.encodePacked(polls[pollCount].option)) == (keccak256(abi.encodePacked(option))))  )\n{\n     polls[pollCount].voteCount++;   \n         proposals.push(Verification({\n                pollid:pollid,\n                voter: msg.sender\n            }));\n }\n   \nelse\n\n{\n//stonedetailsTable[0].stoneidsbycutter.push(\"hello\");\n\ncheck = false;\n proposals.push(Verification({\n                pollid:pollid,\n                voter: msg.sender\n            }));\npollCount++;\npolls[pollCount].id= pollCount;\npolls[pollCount].pollid= pollid;\npolls[pollCount].option= option;\npolls[pollCount].voteCount= 0;\npolls[pollCount].voteCount ++;\nemit votedEvent(pollid,option);\n\n}\n\n        \n    }\n\n    function getAll() public view returns (Poll[] memory) {\n        Poll[] memory myPoll = new Poll[](pollCount);\n        for (uint256 i = 0; i < pollCount; i++) {\n            Poll storage pol = polls[i];\n            myPoll[i] = pol;\n        }\n         require( myPoll.length>0,\"Poll length \");\n        return myPoll;\n    }\n}\n",
  "sourcePath": "/home/zara/Documents/Frontend-Vlock/contracts/Election.sol",
  "compiler": {
    "name": "solc",
    "version": "0.5.16+commit.9c3226ce.Emscripten.clang"
  },
  "schemaVersion": "3.2.3",
  "updatedAt": "2021-01-08T21:18:03.872Z",
  "networkType": "ethereum",
  "devdoc": {
    "methods": {}
  },
  "userdoc": {
    "methods": {}
  }
}