{
  "contractName": "Election",
  "abi": [
    {
      "inputs": [],
      "payable": false,
      "stateMutability": "nonpayable",
      "type": "constructor"
    },
    {
      "anonymous": false,
      "inputs": [
        {
          "indexed": true,
          "internalType": "uint256",
          "name": "_candidateId",
          "type": "uint256"
        }
      ],
      "name": "registerCandidate",
      "type": "event"
    },
    {
      "anonymous": false,
      "inputs": [
        {
          "indexed": true,
          "internalType": "uint256",
          "name": "_candidateId",
          "type": "uint256"
        }
      ],
      "name": "votedEvent",
      "type": "event"
    },
    {
      "constant": true,
      "inputs": [
        {
          "internalType": "uint256",
          "name": "",
          "type": "uint256"
        }
      ],
      "name": "candidates",
      "outputs": [
        {
          "internalType": "uint256",
          "name": "id",
          "type": "uint256"
        },
        {
          "internalType": "string",
          "name": "sapid",
          "type": "string"
        },
        {
          "internalType": "string",
          "name": "name",
          "type": "string"
        },
        {
          "internalType": "uint256",
          "name": "voteCount",
          "type": "uint256"
        },
        {
          "internalType": "string",
          "name": "department",
          "type": "string"
        },
        {
          "internalType": "string",
          "name": "email",
          "type": "string"
        }
      ],
      "payable": false,
      "stateMutability": "view",
      "type": "function"
    },
    {
      "constant": true,
      "inputs": [],
      "name": "candidatesCount",
      "outputs": [
        {
          "internalType": "uint256",
          "name": "",
          "type": "uint256"
        }
      ],
      "payable": false,
      "stateMutability": "view",
      "type": "function"
    },
    {
      "constant": true,
      "inputs": [
        {
          "internalType": "address",
          "name": "",
          "type": "address"
        }
      ],
      "name": "voters",
      "outputs": [
        {
          "internalType": "bool",
          "name": "",
          "type": "bool"
        }
      ],
      "payable": false,
      "stateMutability": "view",
      "type": "function"
    },
    {
      "constant": false,
      "inputs": [
        {
          "internalType": "string",
          "name": "sap",
          "type": "string"
        },
        {
          "internalType": "string",
          "name": "_name",
          "type": "string"
        },
        {
          "internalType": "string",
          "name": "email",
          "type": "string"
        },
        {
          "internalType": "string",
          "name": "dep",
          "type": "string"
        }
      ],
      "name": "addCandidate",
      "outputs": [],
      "payable": false,
      "stateMutability": "nonpayable",
      "type": "function"
    },
    {
      "constant": false,
      "inputs": [
        {
          "internalType": "uint256",
          "name": "_candidateId",
          "type": "uint256"
        }
      ],
      "name": "vote",
      "outputs": [],
      "payable": false,
      "stateMutability": "nonpayable",
      "type": "function"
    }
  ],
  "bytecode": "0x60806040523480156200001157600080fd5b50620000fa6040518060400160405280600481526020017f32343030000000000000000000000000000000000000000000000000000000008152506040518060400160405280600581526020017f5a617261610000000000000000000000000000000000000000000000000000008152506040518060400160405280601281526020017f72616a617a61726140676d61696c2e636f6d00000000000000000000000000008152506040518060400160405280600281526020017f4643000000000000000000000000000000000000000000000000000000000000815250620001e860201b60201c565b620001e26040518060400160405280600481526020017f32353030000000000000000000000000000000000000000000000000000000008152506040518060400160405280600681526020017f5a617269736800000000000000000000000000000000000000000000000000008152506040518060400160405280601081526020017f7a617269736840676d61696c2e636f6d000000000000000000000000000000008152506040518060400160405280600381526020017f4243410000000000000000000000000000000000000000000000000000000000815250620001e860201b60201c565b620003b6565b6002600081548092919060010191905055506040518060c00160405280600254815260200185815260200184815260200160008152602001838152602001828152506001600060025481526020019081526020016000206000820151816000015560208201518160010190805190602001906200026792919062000307565b5060408201518160020190805190602001906200028692919062000307565b50606082015181600301556080820151816004019080519060200190620002af92919062000307565b5060a0820151816005019080519060200190620002ce92919062000307565b509050506002547f0b2a85ead3ba8d5d3c1f99be44a4c47f10bd9287030609646f4f57e8e0c2552360405160405180910390a250505050565b828054600181600116156101000203166002900490600052602060002090601f016020900481019282601f106200034a57805160ff19168380011785556200037b565b828001600101855582156200037b579182015b828111156200037a5782518255916020019190600101906200035d565b5b5090506200038a91906200038e565b5090565b620003b391905b80821115620003af57600081600090555060010162000395565b5090565b90565b610c3280620003c66000396000f3fe608060405234801561001057600080fd5b50600436106100575760003560e01c80630121b93f1461005c5780632d35a8a21461008a5780633477ee2e146100a857806342b03cc9146102a1578063a3ec138d14610521575b600080fd5b6100886004803603602081101561007257600080fd5b810190808035906020019092919050505061057d565b005b610092610733565b6040518082815260200191505060405180910390f35b6100d4600480360360208110156100be57600080fd5b8101908080359060200190929190505050610739565b604051808781526020018060200180602001868152602001806020018060200185810385528a818151815260200191508051906020019080838360005b8381101561012c578082015181840152602081019050610111565b50505050905090810190601f1680156101595780820380516001836020036101000a031916815260200191505b50858103845289818151815260200191508051906020019080838360005b83811015610192578082015181840152602081019050610177565b50505050905090810190601f1680156101bf5780820380516001836020036101000a031916815260200191505b50858103835287818151815260200191508051906020019080838360005b838110156101f85780820151818401526020810190506101dd565b50505050905090810190601f1680156102255780820380516001836020036101000a031916815260200191505b50858103825286818151815260200191508051906020019080838360005b8381101561025e578082015181840152602081019050610243565b50505050905090810190601f16801561028b5780820380516001836020036101000a031916815260200191505b509a505050505050505050505060405180910390f35b61051f600480360360808110156102b757600080fd5b81019080803590602001906401000000008111156102d457600080fd5b8201836020820111156102e657600080fd5b8035906020019184600183028401116401000000008311171561030857600080fd5b91908080601f016020809104026020016040519081016040528093929190818152602001838380828437600081840152601f19601f8201169050808301925050505050505091929192908035906020019064010000000081111561036b57600080fd5b82018360208201111561037d57600080fd5b8035906020019184600183028401116401000000008311171561039f57600080fd5b91908080601f016020809104026020016040519081016040528093929190818152602001838380828437600081840152601f19601f8201169050808301925050505050505091929192908035906020019064010000000081111561040257600080fd5b82018360208201111561041457600080fd5b8035906020019184600183028401116401000000008311171561043657600080fd5b91908080601f016020809104026020016040519081016040528093929190818152602001838380828437600081840152601f19601f8201169050808301925050505050505091929192908035906020019064010000000081111561049957600080fd5b8201836020820111156104ab57600080fd5b803590602001918460018302840111640100000000831117156104cd57600080fd5b91908080601f016020809104026020016040519081016040528093929190818152602001838380828437600081840152601f19601f8201169050808301925050505050505091929192905050506109d5565b005b6105636004803603602081101561053757600080fd5b81019080803573ffffffffffffffffffffffffffffffffffffffff169060200190929190505050610aec565b604051808215151515815260200191505060405180910390f35b6000803373ffffffffffffffffffffffffffffffffffffffff1673ffffffffffffffffffffffffffffffffffffffff16815260200190815260200160002060009054906101000a900460ff161561061f576040517f08c379a0000000000000000000000000000000000000000000000000000000008152600401808060200182810382526023815260200180610bb26023913960400191505060405180910390fd5b60008111801561063157506002548111155b610686576040517f08c379a0000000000000000000000000000000000000000000000000000000008152600401808060200182810382526029815260200180610bd56029913960400191505060405180910390fd5b60016000803373ffffffffffffffffffffffffffffffffffffffff1673ffffffffffffffffffffffffffffffffffffffff16815260200190815260200160002060006101000a81548160ff0219169083151502179055506001600082815260200190815260200160002060030160008154809291906001019190505550807ffff3c900d938d21d0990d786e819f29b8d05c1ef587b462b939609625b684b1660405160405180910390a250565b60025481565b6001602052806000526040600020600091509050806000015490806001018054600181600116156101000203166002900480601f0160208091040260200160405190810160405280929190818152602001828054600181600116156101000203166002900480156107eb5780601f106107c0576101008083540402835291602001916107eb565b820191906000526020600020905b8154815290600101906020018083116107ce57829003601f168201915b505050505090806002018054600181600116156101000203166002900480601f0160208091040260200160405190810160405280929190818152602001828054600181600116156101000203166002900480156108895780601f1061085e57610100808354040283529160200191610889565b820191906000526020600020905b81548152906001019060200180831161086c57829003601f168201915b505050505090806003015490806004018054600181600116156101000203166002900480601f01602080910402602001604051908101604052809291908181526020018280546001816001161561010002031660029004801561092d5780601f106109025761010080835404028352916020019161092d565b820191906000526020600020905b81548152906001019060200180831161091057829003601f168201915b505050505090806005018054600181600116156101000203166002900480601f0160208091040260200160405190810160405280929190818152602001828054600181600116156101000203166002900480156109cb5780601f106109a0576101008083540402835291602001916109cb565b820191906000526020600020905b8154815290600101906020018083116109ae57829003601f168201915b5050505050905086565b6002600081548092919060010191905055506040518060c0016040528060025481526020018581526020018481526020016000815260200183815260200182815250600160006002548152602001908152602001600020600082015181600001556020820151816001019080519060200190610a52929190610b0c565b506040820151816002019080519060200190610a6f929190610b0c565b50606082015181600301556080820151816004019080519060200190610a96929190610b0c565b5060a0820151816005019080519060200190610ab3929190610b0c565b509050506002547f0b2a85ead3ba8d5d3c1f99be44a4c47f10bd9287030609646f4f57e8e0c2552360405160405180910390a250505050565b60006020528060005260406000206000915054906101000a900460ff1681565b828054600181600116156101000203166002900490600052602060002090601f016020900481019282601f10610b4d57805160ff1916838001178555610b7b565b82800160010185558215610b7b579182015b82811115610b7a578251825591602001919060010190610b5f565b5b509050610b889190610b8c565b5090565b610bae91905b80821115610baa576000816000905550600101610b92565b5090565b9056fe4d6573736167652066726f6d20536f6c696469747920747248656c6c6f20576f726c644d6573736167652056616c69642066726f6d20536f6c696469747920747248656c6c6f20576f726c64a265627a7a7231582086f8e4352bc72c1f52b1e726e42216dfcb180233bec0c0fc9fe3b0a22c565bbb64736f6c63430005100032",
  "source": "pragma solidity ^0.5.16;\n\n// import \"@nomiclabs/builder/console.sol\";\n\ncontract Election {\n    // Model a Candidate\n    struct Candidate {\n        uint id;\n        string sapid;\n        string name;\n        uint voteCount;\n        string department;\n        string email;\n        \n    }\n\n    // Store accounts that have voted\n    mapping(address => bool) public voters;\n    // Store Candidates\n    // Fetch Candidate\n    mapping(uint => Candidate) public candidates;\n    // Store Candidates Count\n    uint public candidatesCount;\n  //  string public partyFetch;\n\n    // voted event\n    event votedEvent (\n        uint indexed _candidateId\n    );\n\n    event registerCandidate (\n        uint indexed _candidateId\n    );\n\n    constructor() public {\n   //     console.log(\"Welcome to Election\");\n      \n       addCandidate(\"2400\",\"Zaraa\", \"rajazara@gmail.com\", \"FC\");\n       addCandidate(\"2500\",\"Zarish\", \"zarish@gmail.com\", \"BCA\");\n       \n        \n    }\n\n    function addCandidate (string memory sap, string memory _name, string memory email, string memory dep) public {\n        candidatesCount ++;\n        candidates[candidatesCount] = Candidate(candidatesCount, sap, _name,0,email,dep);\n        emit registerCandidate(candidatesCount);\n        // console.log(\"Message from Solidity trHello World\", candidates);\n    }\n\n\n    function vote (uint _candidateId) public {\n        // require that they haven't voted before\n      require(!voters[msg.sender],\"Message from Solidity trHello World\");\n\n        // require a valid candidate\n        require(_candidateId > 0 && _candidateId <= candidatesCount, \"Message Valid from Solidity trHello World\");\n\n        // record that voter has voted\n        voters[msg.sender] = true;\n\n        // update candidate vote Count\n        candidates[_candidateId].voteCount ++;\n\n        // trigger voted event\n        emit votedEvent(_candidateId);\n    }\n}\n",
  "sourcePath": "/home/zara/Final Front End/fyp2/contracts/Election.sol",
  "compiler": {
    "name": "solc",
    "version": "0.5.16+commit.9c3226ce.Emscripten.clang"
  },
  "schemaVersion": "3.2.3",
  "updatedAt": "2020-11-12T16:41:16.623Z",
  "networkType": "ethereum",
  "devdoc": {
    "methods": {}
  },
  "userdoc": {
    "methods": {}
  }
}