{
  "contractName": "Election",
  "abi": [
    {
      "inputs": [],
      "payable": false,
      "stateMutability": "nonpayable",
      "type": "constructor"
    },
    {
      "anonymous": false,
      "inputs": [
        {
          "indexed": true,
          "internalType": "uint256",
          "name": "_candidateId",
          "type": "uint256"
        }
      ],
      "name": "registerCandidate",
      "type": "event"
    },
    {
      "anonymous": false,
      "inputs": [
        {
          "indexed": true,
          "internalType": "string",
          "name": "pollId",
          "type": "string"
        },
        {
          "indexed": true,
          "internalType": "string",
          "name": "option",
          "type": "string"
        }
      ],
      "name": "voteEvent",
      "type": "event"
    },
    {
      "anonymous": false,
      "inputs": [
        {
          "indexed": true,
          "internalType": "uint256",
          "name": "_candidateId",
          "type": "uint256"
        }
      ],
      "name": "votedEvent",
      "type": "event"
    },
    {
      "constant": true,
      "inputs": [
        {
          "internalType": "uint256",
          "name": "",
          "type": "uint256"
        }
      ],
      "name": "candidates",
      "outputs": [
        {
          "internalType": "uint256",
          "name": "id",
          "type": "uint256"
        },
        {
          "internalType": "string",
          "name": "sapid",
          "type": "string"
        },
        {
          "internalType": "string",
          "name": "name",
          "type": "string"
        },
        {
          "internalType": "uint256",
          "name": "voteCount",
          "type": "uint256"
        },
        {
          "internalType": "string",
          "name": "department",
          "type": "string"
        },
        {
          "internalType": "string",
          "name": "email",
          "type": "string"
        }
      ],
      "payable": false,
      "stateMutability": "view",
      "type": "function"
    },
    {
      "constant": true,
      "inputs": [],
      "name": "candidatesCount",
      "outputs": [
        {
          "internalType": "uint256",
          "name": "",
          "type": "uint256"
        }
      ],
      "payable": false,
      "stateMutability": "view",
      "type": "function"
    },
    {
      "constant": true,
      "inputs": [],
      "name": "check",
      "outputs": [
        {
          "internalType": "bool",
          "name": "",
          "type": "bool"
        }
      ],
      "payable": false,
      "stateMutability": "view",
      "type": "function"
    },
    {
      "constant": true,
      "inputs": [],
      "name": "pollCount",
      "outputs": [
        {
          "internalType": "uint256",
          "name": "",
          "type": "uint256"
        }
      ],
      "payable": false,
      "stateMutability": "view",
      "type": "function"
    },
    {
      "constant": true,
      "inputs": [
        {
          "internalType": "uint256",
          "name": "",
          "type": "uint256"
        }
      ],
      "name": "polls",
      "outputs": [
        {
          "internalType": "uint256",
          "name": "id",
          "type": "uint256"
        },
        {
          "internalType": "string",
          "name": "pollid",
          "type": "string"
        },
        {
          "internalType": "string",
          "name": "option",
          "type": "string"
        },
        {
          "internalType": "uint256",
          "name": "voteCount",
          "type": "uint256"
        }
      ],
      "payable": false,
      "stateMutability": "view",
      "type": "function"
    },
    {
      "constant": true,
      "inputs": [
        {
          "internalType": "address",
          "name": "",
          "type": "address"
        }
      ],
      "name": "voters",
      "outputs": [
        {
          "internalType": "bool",
          "name": "",
          "type": "bool"
        }
      ],
      "payable": false,
      "stateMutability": "view",
      "type": "function"
    },
    {
      "constant": false,
      "inputs": [
        {
          "internalType": "string",
          "name": "pollid",
          "type": "string"
        },
        {
          "internalType": "string",
          "name": "option",
          "type": "string"
        }
      ],
      "name": "voted",
      "outputs": [],
      "payable": false,
      "stateMutability": "nonpayable",
      "type": "function"
    },
    {
      "constant": true,
      "inputs": [],
      "name": "getAll",
      "outputs": [
        {
          "components": [
            {
              "internalType": "uint256",
              "name": "id",
              "type": "uint256"
            },
            {
              "internalType": "string",
              "name": "pollid",
              "type": "string"
            },
            {
              "internalType": "string",
              "name": "option",
              "type": "string"
            },
            {
              "internalType": "uint256",
              "name": "voteCount",
              "type": "uint256"
            }
          ],
          "internalType": "struct Election.Poll[]",
          "name": "",
          "type": "tuple[]"
        }
      ],
      "payable": false,
      "stateMutability": "view",
      "type": "function"
    },
    {
      "constant": false,
      "inputs": [
        {
          "internalType": "string",
          "name": "sap",
          "type": "string"
        },
        {
          "internalType": "string",
          "name": "_name",
          "type": "string"
        },
        {
          "internalType": "string",
          "name": "email",
          "type": "string"
        },
        {
          "internalType": "string",
          "name": "dep",
          "type": "string"
        }
      ],
      "name": "addCandidate",
      "outputs": [],
      "payable": false,
      "stateMutability": "nonpayable",
      "type": "function"
    },
    {
      "constant": false,
      "inputs": [
        {
          "internalType": "uint256",
          "name": "_candidateId",
          "type": "uint256"
        }
      ],
      "name": "vote",
      "outputs": [],
      "payable": false,
      "stateMutability": "nonpayable",
      "type": "function"
    }
  ],
  "bytecode": "0x60806040526000600260006101000a81548160ff0219169083151502179055503480156200002c57600080fd5b50620001156040518060400160405280600481526020017f32343030000000000000000000000000000000000000000000000000000000008152506040518060400160405280600581526020017f5a617261610000000000000000000000000000000000000000000000000000008152506040518060400160405280601281526020017f72616a617a61726140676d61696c2e636f6d00000000000000000000000000008152506040518060400160405280600281526020017f46430000000000000000000000000000000000000000000000000000000000008152506200020360201b60201c565b620001fd6040518060400160405280600481526020017f32353030000000000000000000000000000000000000000000000000000000008152506040518060400160405280600681526020017f5a617269736800000000000000000000000000000000000000000000000000008152506040518060400160405280601081526020017f7a617269736840676d61696c2e636f6d000000000000000000000000000000008152506040518060400160405280600381526020017f42434100000000000000000000000000000000000000000000000000000000008152506200020360201b60201c565b620003d1565b6005600081548092919060010191905055506040518060c00160405280600554815260200185815260200184815260200160008152602001838152602001828152506004600060055481526020019081526020016000206000820151816000015560208201518160010190805190602001906200028292919062000322565b506040820151816002019080519060200190620002a192919062000322565b50606082015181600301556080820151816004019080519060200190620002ca92919062000322565b5060a0820151816005019080519060200190620002e992919062000322565b509050506005547f0b2a85ead3ba8d5d3c1f99be44a4c47f10bd9287030609646f4f57e8e0c2552360405160405180910390a250505050565b828054600181600116156101000203166002900490600052602060002090601f016020900481019282601f106200036557805160ff191683800117855562000396565b8280016001018555821562000396579182015b828111156200039557825182559160200191906001019062000378565b5b509050620003a59190620003a9565b5090565b620003ce91905b80821115620003ca576000816000905550600101620003b0565b5090565b90565b6117b380620003e16000396000f3fe608060405234801561001057600080fd5b506004361061009e5760003560e01c806353ed51431161006657806353ed51431461014a578063919840ad146101685780639207891d14610186578063a3ec138d146101a4578063ac2f0074146101d45761009e565b80630121b93f146100a35780632d35a8a2146100bf5780633477ee2e146100dd57806342b03cc9146101125780634ffa00f11461012e575b600080fd5b6100bd60048036036100b891908101906110e1565b610207565b005b6100c7610393565b6040516100d491906114d2565b60405180910390f35b6100f760048036036100f291908101906110e1565b610399565b60405161010996959493929190611540565b60405180910390f35b61012c6004803603610127919081019061101e565b610635565b005b61014860048036036101439190810190610fb2565b61074c565b005b610152610aac565b60405161015f9190611455565b60405180910390f35b610170610ca5565b60405161017d9190611477565b60405180910390f35b61018e610cb8565b60405161019b91906114d2565b60405180910390f35b6101be60048036036101b99190810190610f89565b610cbe565b6040516101cb9190611477565b60405180910390f35b6101ee60048036036101e991908101906110e1565b610cde565b6040516101fe94939291906114ed565b60405180910390f35b600360003373ffffffffffffffffffffffffffffffffffffffff1673ffffffffffffffffffffffffffffffffffffffff16815260200190815260200160002060009054906101000a900460ff1615610294576040517f08c379a000000000000000000000000000000000000000000000000000000000815260040161028b90611492565b60405180910390fd5b6000811180156102a657506005548111155b6102e5576040517f08c379a00000000000000000000000000000000000000000000000000000000081526004016102dc906114b2565b60405180910390fd5b6001600360003373ffffffffffffffffffffffffffffffffffffffff1673ffffffffffffffffffffffffffffffffffffffff16815260200190815260200160002060006101000a81548160ff0219169083151502179055506004600082815260200190815260200160002060030160008154809291906001019190505550807ffff3c900d938d21d0990d786e819f29b8d05c1ef587b462b939609625b684b1660405160405180910390a250565b60055481565b6004602052806000526040600020600091509050806000015490806001018054600181600116156101000203166002900480601f01602080910402602001604051908101604052809291908181526020018280546001816001161561010002031660029004801561044b5780601f106104205761010080835404028352916020019161044b565b820191906000526020600020905b81548152906001019060200180831161042e57829003601f168201915b505050505090806002018054600181600116156101000203166002900480601f0160208091040260200160405190810160405280929190818152602001828054600181600116156101000203166002900480156104e95780601f106104be576101008083540402835291602001916104e9565b820191906000526020600020905b8154815290600101906020018083116104cc57829003601f168201915b505050505090806003015490806004018054600181600116156101000203166002900480601f01602080910402602001604051908101604052809291908181526020018280546001816001161561010002031660029004801561058d5780601f106105625761010080835404028352916020019161058d565b820191906000526020600020905b81548152906001019060200180831161057057829003601f168201915b505050505090806005018054600181600116156101000203166002900480601f01602080910402602001604051908101604052809291908181526020018280546001816001161561010002031660029004801561062b5780601f106106005761010080835404028352916020019161062b565b820191906000526020600020905b81548152906001019060200180831161060e57829003601f168201915b5050505050905086565b6005600081548092919060010191905055506040518060c00160405280600554815260200185815260200184815260200160008152602001838152602001828152506004600060055481526020019081526020016000206000820151816000015560208201518160010190805190602001906106b2929190610e3e565b5060408201518160020190805190602001906106cf929190610e3e565b506060820151816003015560808201518160040190805190602001906106f6929190610e3e565b5060a0820151816005019080519060200190610713929190610e3e565b509050506005547f0b2a85ead3ba8d5d3c1f99be44a4c47f10bd9287030609646f4f57e8e0c2552360405160405180910390a250505050565b8160405160200161075d9190611427565b60405160208183030381529060405280519060200120600080600154815260200190815260200160002060010160405160200161079a919061143e565b6040516020818303038152906040528051906020012014801561081e5750806040516020016107c99190611427565b604051602081830303815290604052805190602001206000806001548152602001908152602001600020600201604051602001610806919061143e565b60405160208183030381529060405280519060200120145b1561091a576001600260006101000a81548160ff0219169083151502179055506000806001548152602001908152602001600020600301600081548092919060010191905055506001600360003373ffffffffffffffffffffffffffffffffffffffff1673ffffffffffffffffffffffffffffffffffffffff16815260200190815260200160002060006101000a81548160ff021916908315150217905550806040516108cb9190611427565b6040518091039020826040516108e19190611427565b60405180910390207f46cc39a11bf2d1232634327f807e1024a1e1f78c9e44f433ebb7b7f398cc08b160405160405180910390a3610aa8565b6000600260006101000a81548160ff0219169083151502179055506001600360003373ffffffffffffffffffffffffffffffffffffffff1673ffffffffffffffffffffffffffffffffffffffff16815260200190815260200160002060006101000a81548160ff02191690831515021790555060016000815480929190600101919050555060405180608001604052806001548152602001838152602001828152602001600081525060008060015481526020019081526020016000206000820151816000015560208201518160010190805190602001906109fd929190610e3e565b506040820151816002019080519060200190610a1a929190610e3e565b506060820151816003015590505060008060015481526020019081526020016000206003016000815480929190600101919050555080604051610a5d9190611427565b604051809103902082604051610a739190611427565b60405180910390207f46cc39a11bf2d1232634327f807e1024a1e1f78c9e44f433ebb7b7f398cc08b160405160405180910390a35b5050565b606080600154604051908082528060200260200182016040528015610aeb57816020015b610ad8610ebe565b815260200190600190039081610ad05790505b50905060008090505b600154811015610c9d57600080600083815260200190815260200160002090508060405180608001604052908160008201548152602001600182018054600181600116156101000203166002900480601f016020809104026020016040519081016040528092919081815260200182805460018160011615610100020316600290048015610bc35780601f10610b9857610100808354040283529160200191610bc3565b820191906000526020600020905b815481529060010190602001808311610ba657829003601f168201915b50505050508152602001600282018054600181600116156101000203166002900480601f016020809104026020016040519081016040528092919081815260200182805460018160011615610100020316600290048015610c655780601f10610c3a57610100808354040283529160200191610c65565b820191906000526020600020905b815481529060010190602001808311610c4857829003601f168201915b50505050508152602001600382015481525050838381518110610c8457fe5b6020026020010181905250508080600101915050610af4565b508091505090565b600260009054906101000a900460ff1681565b60015481565b60036020528060005260406000206000915054906101000a900460ff1681565b6000602052806000526040600020600091509050806000015490806001018054600181600116156101000203166002900480601f016020809104026020016040519081016040528092919081815260200182805460018160011615610100020316600290048015610d905780601f10610d6557610100808354040283529160200191610d90565b820191906000526020600020905b815481529060010190602001808311610d7357829003601f168201915b505050505090806002018054600181600116156101000203166002900480601f016020809104026020016040519081016040528092919081815260200182805460018160011615610100020316600290048015610e2e5780601f10610e0357610100808354040283529160200191610e2e565b820191906000526020600020905b815481529060010190602001808311610e1157829003601f168201915b5050505050908060030154905084565b828054600181600116156101000203166002900490600052602060002090601f016020900481019282601f10610e7f57805160ff1916838001178555610ead565b82800160010185558215610ead579182015b82811115610eac578251825591602001919060010190610e91565b5b509050610eba9190610ee6565b5090565b6040518060800160405280600081526020016060815260200160608152602001600081525090565b610f0891905b80821115610f04576000816000905550600101610eec565b5090565b90565b600081359050610f1a81611742565b92915050565b600082601f830112610f3157600080fd5b8135610f44610f3f826115ea565b6115bd565b91508082526020830160208301858383011115610f6057600080fd5b610f6b8382846116ef565b50505092915050565b600081359050610f8381611759565b92915050565b600060208284031215610f9b57600080fd5b6000610fa984828501610f0b565b91505092915050565b60008060408385031215610fc557600080fd5b600083013567ffffffffffffffff811115610fdf57600080fd5b610feb85828601610f20565b925050602083013567ffffffffffffffff81111561100857600080fd5b61101485828601610f20565b9150509250929050565b6000806000806080858703121561103457600080fd5b600085013567ffffffffffffffff81111561104e57600080fd5b61105a87828801610f20565b945050602085013567ffffffffffffffff81111561107757600080fd5b61108387828801610f20565b935050604085013567ffffffffffffffff8111156110a057600080fd5b6110ac87828801610f20565b925050606085013567ffffffffffffffff8111156110c957600080fd5b6110d587828801610f20565b91505092959194509250565b6000602082840312156110f357600080fd5b600061110184828501610f74565b91505092915050565b6000611116838361139f565b905092915050565b60006111298261163b565b6111338185611669565b93508360208202850161114585611616565b8060005b858110156111815784840389528151611162858261110a565b945061116d8361165c565b925060208a01995050600181019050611149565b50829750879550505050505092915050565b61119c816116b9565b82525050565b60006111ad82611651565b6111b7818561169c565b93506111c78185602086016116fe565b80840191505092915050565b60006111de82611646565b6111e8818561167a565b93506111f88185602086016116fe565b61120181611731565b840191505092915050565b600061121782611646565b611221818561168b565b93506112318185602086016116fe565b61123a81611731565b840191505092915050565b6000815460018116600081146112625760018114611287576112cb565b607f6002830416611273818761169c565b955060ff19831686528086019350506112cb565b60028204611295818761169c565b95506112a085611626565b60005b828110156112c2578154818901526001820191506020810190506112a3565b82880195505050505b505092915050565b60006112e060238361168b565b91507f4d6573736167652066726f6d20536f6c696469747920747248656c6c6f20576f60008301527f726c6400000000000000000000000000000000000000000000000000000000006020830152604082019050919050565b600061134660298361168b565b91507f4d6573736167652056616c69642066726f6d20536f6c6964697479207472486560008301527f6c6c6f20576f726c6400000000000000000000000000000000000000000000006020830152604082019050919050565b60006080830160008301516113b76000860182611409565b50602083015184820360208601526113cf82826111d3565b915050604083015184820360408601526113e982826111d3565b91505060608301516113fe6060860182611409565b508091505092915050565b611412816116e5565b82525050565b611421816116e5565b82525050565b600061143382846111a2565b915081905092915050565b600061144a8284611245565b915081905092915050565b6000602082019050818103600083015261146f818461111e565b905092915050565b600060208201905061148c6000830184611193565b92915050565b600060208201905081810360008301526114ab816112d3565b9050919050565b600060208201905081810360008301526114cb81611339565b9050919050565b60006020820190506114e76000830184611418565b92915050565b60006080820190506115026000830187611418565b8181036020830152611514818661120c565b90508181036040830152611528818561120c565b90506115376060830184611418565b95945050505050565b600060c0820190506115556000830189611418565b8181036020830152611567818861120c565b9050818103604083015261157b818761120c565b905061158a6060830186611418565b818103608083015261159c818561120c565b905081810360a08301526115b0818461120c565b9050979650505050505050565b6000604051905081810181811067ffffffffffffffff821117156115e057600080fd5b8060405250919050565b600067ffffffffffffffff82111561160157600080fd5b601f19601f8301169050602081019050919050565b6000819050602082019050919050565b60008190508160005260206000209050919050565b600081519050919050565b600081519050919050565b600081519050919050565b6000602082019050919050565b600082825260208201905092915050565b600082825260208201905092915050565b600082825260208201905092915050565b600081905092915050565b60006116b2826116c5565b9050919050565b60008115159050919050565b600073ffffffffffffffffffffffffffffffffffffffff82169050919050565b6000819050919050565b82818337600083830152505050565b60005b8381101561171c578082015181840152602081019050611701565b8381111561172b576000848401525b50505050565b6000601f19601f8301169050919050565b61174b816116a7565b811461175657600080fd5b50565b611762816116e5565b811461176d57600080fd5b5056fea365627a7a723158208b44d5fea7bb95f4c5bf43837a380b012557f80a6a171948da3cc8b468d684a86c6578706572696d656e74616cf564736f6c63430005100040",
  "source": "pragma solidity ^0.5.16;\r\npragma experimental ABIEncoderV2;\r\n\r\n// import \"@nomiclabs/builder/console.sol\";\r\n\r\ncontract Election {\r\n    // Model a Candidate\r\n    struct Candidate {\r\n        uint id;\r\n        string sapid;\r\n        string name;\r\n        uint voteCount;\r\n        string department;\r\n        string email;\r\n    }\r\n\r\n    struct Poll {\r\n        uint256 id;\r\n        string pollid;\r\n        string option;\r\n        uint256 voteCount;\r\n    }\r\n\r\n    // mapping(address => bool) public voters;\r\n    mapping(uint256 => Poll) public polls;\r\n    uint256 public pollCount;\r\n        bool public check=false;\r\n\r\n\r\n    event voteEvent(string indexed pollId, string indexed option);\r\n\r\n    function voted(string memory pollid, string memory option) public\r\n    {\r\n        if(keccak256(abi.encodePacked((polls[pollCount].pollid))) == keccak256(abi.encodePacked((pollid))) && (keccak256(abi.encodePacked(polls[pollCount].option)) == (keccak256(abi.encodePacked(option)))))\r\n        {\r\n            check = true;\r\n            polls[pollCount].voteCount ++;\r\n            voters[msg.sender]=true;\r\n            emit voteEvent(pollid,option);\r\n\r\n        } else {\r\n            check = false;\r\n            voters[msg.sender]=true;\r\n            pollCount++;\r\n            polls[pollCount]= Poll(pollCount, pollid, option,0);\r\n            polls[pollCount].voteCount ++;\r\n            emit voteEvent(pollid,option);\r\n        }\r\n    }\r\n\r\n\r\n    function getAll() public view returns (Poll[] memory){\r\n\r\n        Poll [] memory myPoll = new Poll[](pollCount);\r\n        for (uint256 i = 0 ; i <pollCount; i++)    {\r\n            Poll storage pol = polls[i];\r\n            myPoll[i] = pol;\r\n        }\r\n        return myPoll;\r\n    }        \r\n\r\n    // Store accounts that have voted\r\n    mapping(address => bool) public voters;\r\n    // Store Candidates\r\n    // Fetch Candidate\r\n    mapping(uint => Candidate) public candidates;\r\n    // Store Candidates Count\r\n    uint public candidatesCount;\r\n  //  string public partyFetch;\r\n\r\n    // voted event\r\n    event votedEvent (\r\n        uint indexed _candidateId\r\n    );\r\n\r\n    event registerCandidate (\r\n        uint indexed _candidateId\r\n    );\r\n\r\n    constructor() public {\r\n   //     console.log(\"Welcome to Election\");\r\n      \r\n       addCandidate(\"2400\",\"Zaraa\", \"rajazara@gmail.com\", \"FC\");\r\n       addCandidate(\"2500\",\"Zarish\", \"zarish@gmail.com\", \"BCA\");\r\n       \r\n        \r\n    }\r\n\r\n    function addCandidate (string memory sap, string memory _name, string memory email, string memory dep) public {\r\n        candidatesCount ++;\r\n        candidates[candidatesCount] = Candidate(candidatesCount, sap, _name,0,email,dep);\r\n        emit registerCandidate(candidatesCount);\r\n        // console.log(\"Message from Solidity trHello World\", candidates);\r\n    }\r\n\r\n\r\n    function vote (uint _candidateId) public {\r\n        // require that they haven't voted before\r\n      require(!voters[msg.sender],\"Message from Solidity trHello World\");\r\n\r\n        // require a valid candidate\r\n        require(_candidateId > 0 && _candidateId <= candidatesCount, \"Message Valid from Solidity trHello World\");\r\n\r\n        // record that voter has voted\r\n        voters[msg.sender] = true;\r\n\r\n        // update candidate vote Count\r\n        candidates[_candidateId].voteCount ++;\r\n\r\n        // trigger voted event\r\n        emit votedEvent(_candidateId);\r\n    }\r\n}\r\n",
  "sourcePath": "D:/fyp/Frontend-Vlock/contracts/Election.sol",
  "compiler": {
    "name": "solc",
    "version": "0.5.16+commit.9c3226ce.Emscripten.clang"
  },
  "schemaVersion": "3.3.3",
  "updatedAt": "2021-01-02T11:17:11.844Z",
  "networkType": "ethereum",
  "devdoc": {
    "methods": {}
  },
  "userdoc": {
    "methods": {}
  }
}