{
  "contractName": "Election",
  "abi": [
    {
      "inputs": [],
      "payable": false,
      "stateMutability": "nonpayable",
      "type": "constructor"
    },
    {
      "anonymous": false,
      "inputs": [
        {
          "indexed": true,
          "internalType": "string",
          "name": "pollId",
          "type": "string"
        },
        {
          "indexed": true,
          "internalType": "string",
          "name": "option",
          "type": "string"
        }
      ],
      "name": "votedEvent",
      "type": "event"
    },
    {
      "constant": true,
      "inputs": [],
      "name": "check",
      "outputs": [
        {
          "internalType": "bool",
          "name": "",
          "type": "bool"
        }
      ],
      "payable": false,
      "stateMutability": "view",
      "type": "function"
    },
    {
      "constant": true,
      "inputs": [],
      "name": "pollCount",
      "outputs": [
        {
          "internalType": "uint256",
          "name": "",
          "type": "uint256"
        }
      ],
      "payable": false,
      "stateMutability": "view",
      "type": "function"
    },
    {
      "constant": true,
      "inputs": [
        {
          "internalType": "uint256",
          "name": "",
          "type": "uint256"
        }
      ],
      "name": "polls",
      "outputs": [
        {
          "internalType": "uint256",
          "name": "id",
          "type": "uint256"
        },
        {
          "internalType": "string",
          "name": "pollid",
          "type": "string"
        },
        {
          "internalType": "string",
          "name": "option",
          "type": "string"
        },
        {
          "internalType": "uint256",
          "name": "voteCount",
          "type": "uint256"
        }
      ],
      "payable": false,
      "stateMutability": "view",
      "type": "function"
    },
    {
      "constant": true,
      "inputs": [
        {
          "internalType": "uint256",
          "name": "",
          "type": "uint256"
        }
      ],
      "name": "proposals",
      "outputs": [
        {
          "internalType": "string",
          "name": "pollid",
          "type": "string"
        },
        {
          "internalType": "address",
          "name": "voter",
          "type": "address"
        }
      ],
      "payable": false,
      "stateMutability": "view",
      "type": "function"
    },
    {
      "constant": true,
      "inputs": [],
      "name": "voterExist",
      "outputs": [
        {
          "internalType": "bool",
          "name": "",
          "type": "bool"
        }
      ],
      "payable": false,
      "stateMutability": "view",
      "type": "function"
    },
    {
      "constant": true,
      "inputs": [
        {
          "internalType": "address",
          "name": "",
          "type": "address"
        }
      ],
      "name": "voters",
      "outputs": [
        {
          "internalType": "bool",
          "name": "",
          "type": "bool"
        }
      ],
      "payable": false,
      "stateMutability": "view",
      "type": "function"
    },
    {
      "constant": false,
      "inputs": [
        {
          "internalType": "string",
          "name": "pollid",
          "type": "string"
        },
        {
          "internalType": "string",
          "name": "option",
          "type": "string"
        }
      ],
      "name": "vote",
      "outputs": [],
      "payable": false,
      "stateMutability": "nonpayable",
      "type": "function"
    },
    {
      "constant": false,
      "inputs": [
        {
          "internalType": "string",
          "name": "_name",
          "type": "string"
        }
      ],
      "name": "setName",
      "outputs": [],
      "payable": false,
      "stateMutability": "nonpayable",
      "type": "function"
    },
    {
      "constant": true,
      "inputs": [],
      "name": "getName",
      "outputs": [
        {
          "internalType": "string",
          "name": "",
          "type": "string"
        }
      ],
      "payable": false,
      "stateMutability": "view",
      "type": "function"
    },
    {
      "constant": true,
      "inputs": [],
      "name": "getAllData",
      "outputs": [
        {
          "components": [
            {
              "internalType": "uint256",
              "name": "id",
              "type": "uint256"
            },
            {
              "internalType": "string",
              "name": "pollid",
              "type": "string"
            },
            {
              "internalType": "string",
              "name": "option",
              "type": "string"
            },
            {
              "internalType": "uint256",
              "name": "voteCount",
              "type": "uint256"
            }
          ],
          "internalType": "struct Election.Poll[]",
          "name": "",
          "type": "tuple[]"
        }
      ],
      "payable": false,
      "stateMutability": "view",
      "type": "function"
    }
  ],
  "bytecode": "0x60806040526000600660006101000a81548160ff0219169083151502179055506000600660016101000a81548160ff02191690831515021790555034801561004657600080fd5b5061160d806100566000396000f3fe608060405234801561001057600080fd5b506004361061009e5760003560e01c8063a3ec138d11610066578063a3ec138d1461014c578063ac2f00741461017c578063baca9b87146101af578063c47f0027146101cd578063e8d5940d146101e95761009e565b8063013cf08b146100a357806317d7de7c146100d45780632d10fa28146100f2578063919840ad146101105780639207891d1461012e575b600080fd5b6100bd60048036036100b89190810190610fca565b610205565b6040516100cb929190611359565b60405180910390f35b6100dc6102ee565b6040516100e99190611337565b60405180910390f35b6100fa610390565b60405161010791906112fa565b60405180910390f35b61011861058a565b604051610125919061131c565b60405180910390f35b61013661059d565b60405161014391906113a9565b60405180910390f35b61016660048036036101619190810190610ef4565b6105a3565b604051610173919061131c565b60405180910390f35b61019660048036036101919190810190610fca565b6105c3565b6040516101a694939291906113c4565b60405180910390f35b6101b7610723565b6040516101c4919061131c565b60405180910390f35b6101e760048036036101e29190810190610f1d565b610736565b005b61020360048036036101fe9190810190610f5e565b610750565b005b6002818154811061021257fe5b9060005260206000209060020201600091509050806000018054600181600116156101000203166002900480601f0160208091040260200160405190810160405280929190818152602001828054600181600116156101000203166002900480156102be5780601f10610293576101008083540402835291602001916102be565b820191906000526020600020905b8154815290600101906020018083116102a157829003601f168201915b5050505050908060010160009054906101000a900473ffffffffffffffffffffffffffffffffffffffff16905082565b606060008054600181600116156101000203166002900480601f0160208091040260200160405190810160405280929190818152602001828054600181600116156101000203166002900480156103865780601f1061035b57610100808354040283529160200191610386565b820191906000526020600020905b81548152906001019060200180831161036957829003601f168201915b5050505050905090565b6060806005546040519080825280602002602001820160405280156103cf57816020015b6103bc610d29565b8152602001906001900390816103b45790505b50905060008090505b6005548110156105825760006004600083815260200190815260200160002090508060405180608001604052908160008201548152602001600182018054600181600116156101000203166002900480601f0160208091040260200160405190810160405280929190818152602001828054600181600116156101000203166002900480156104a85780601f1061047d576101008083540402835291602001916104a8565b820191906000526020600020905b81548152906001019060200180831161048b57829003601f168201915b50505050508152602001600282018054600181600116156101000203166002900480601f01602080910402602001604051908101604052809291908181526020018280546001816001161561010002031660029004801561054a5780601f1061051f5761010080835404028352916020019161054a565b820191906000526020600020905b81548152906001019060200180831161052d57829003601f168201915b5050505050815260200160038201548152505083838151811061056957fe5b60200260200101819052505080806001019150506103d8565b508091505090565b600660009054906101000a900460ff1681565b60055481565b60036020528060005260406000206000915054906101000a900460ff1681565b6004602052806000526040600020600091509050806000015490806001018054600181600116156101000203166002900480601f0160208091040260200160405190810160405280929190818152602001828054600181600116156101000203166002900480156106755780601f1061064a57610100808354040283529160200191610675565b820191906000526020600020905b81548152906001019060200180831161065857829003601f168201915b505050505090806002018054600181600116156101000203166002900480601f0160208091040260200160405190810160405280929190818152602001828054600181600116156101000203166002900480156107135780601f106106e857610100808354040283529160200191610713565b820191906000526020600020905b8154815290600101906020018083116106f657829003601f168201915b5050505050908060030154905084565b600660019054906101000a900460ff1681565b806000908051906020019061074c929190610d51565b5050565b60008090505b60028054905081101561095b578260405160200161077491906112cc565b604051602081830303815290604052805190602001206002828154811061079757fe5b90600052602060002090600202016000016040516020016107b891906112e3565b6040516020818303038152906040528051906020012014801561084457503373ffffffffffffffffffffffffffffffffffffffff16600282815481106107fa57fe5b906000526020600020906002020160010160009054906101000a900473ffffffffffffffffffffffffffffffffffffffff1673ffffffffffffffffffffffffffffffffffffffff16145b1561094e576001600660016101000a81548160ff0219169083151502179055506001600360003373ffffffffffffffffffffffffffffffffffffffff1673ffffffffffffffffffffffffffffffffffffffff16815260200190815260200160002060006101000a81548160ff021916908315150217905550600360003373ffffffffffffffffffffffffffffffffffffffff1673ffffffffffffffffffffffffffffffffffffffff16815260200190815260200160002060009054906101000a900460ff1615610949576040517f08c379a000000000000000000000000000000000000000000000000000000000815260040161094090611389565b60405180910390fd5b61095b565b8080600101915050610756565b508160405160200161096d91906112cc565b604051602081830303815290604052805190602001206004600060055481526020019081526020016000206001016040516020016109ab91906112e3565b60405160208183030381529060405280519060200120148015610a305750806040516020016109da91906112cc565b60405160208183030381529060405280519060200120600460006005548152602001908152602001600020600201604051602001610a1891906112e3565b60405160208183030381529060405280519060200120145b15610b215760046000600554815260200190815260200160002060030160008154809291906001019190505550600260405180604001604052808481526020013373ffffffffffffffffffffffffffffffffffffffff16815250908060018154018082558091505090600182039060005260206000209060020201600090919290919091506000820151816000019080519060200190610ad1929190610dd1565b5060208201518160010160006101000a81548173ffffffffffffffffffffffffffffffffffffffff021916908373ffffffffffffffffffffffffffffffffffffffff160217905550505050610d25565b6000600660006101000a81548160ff021916908315150217905550600260405180604001604052808481526020013373ffffffffffffffffffffffffffffffffffffffff16815250908060018154018082558091505090600182039060005260206000209060020201600090919290919091506000820151816000019080519060200190610bb0929190610dd1565b5060208201518160010160006101000a81548173ffffffffffffffffffffffffffffffffffffffff021916908373ffffffffffffffffffffffffffffffffffffffff16021790555050505060056000815480929190600101919050555060055460046000600554815260200190815260200160002060000181905550816004600060055481526020019081526020016000206001019080519060200190610c58929190610d51565b50806004600060055481526020019081526020016000206002019080519060200190610c85929190610d51565b506000600460006005548152602001908152602001600020600301819055506004600060055481526020019081526020016000206003016000815480929190600101919050555080604051610cda91906112cc565b604051809103902082604051610cf091906112cc565b60405180910390207fb72bc004d3c880dde5aa3e326a8cd34deb7b664a4eccf90d78bce917dce6964f60405160405180910390a35b5050565b6040518060800160405280600081526020016060815260200160608152602001600081525090565b828054600181600116156101000203166002900490600052602060002090601f016020900481019282601f10610d9257805160ff1916838001178555610dc0565b82800160010185558215610dc0579182015b82811115610dbf578251825591602001919060010190610da4565b5b509050610dcd9190610e51565b5090565b828054600181600116156101000203166002900490600052602060002090601f016020900481019282601f10610e1257805160ff1916838001178555610e40565b82800160010185558215610e40579182015b82811115610e3f578251825591602001919060010190610e24565b5b509050610e4d9190610e51565b5090565b610e7391905b80821115610e6f576000816000905550600101610e57565b5090565b90565b600081359050610e858161159c565b92915050565b600082601f830112610e9c57600080fd5b8135610eaf610eaa82611444565b611417565b91508082526020830160208301858383011115610ecb57600080fd5b610ed6838284611549565b50505092915050565b600081359050610eee816115b3565b92915050565b600060208284031215610f0657600080fd5b6000610f1484828501610e76565b91505092915050565b600060208284031215610f2f57600080fd5b600082013567ffffffffffffffff811115610f4957600080fd5b610f5584828501610e8b565b91505092915050565b60008060408385031215610f7157600080fd5b600083013567ffffffffffffffff811115610f8b57600080fd5b610f9785828601610e8b565b925050602083013567ffffffffffffffff811115610fb457600080fd5b610fc085828601610e8b565b9150509250929050565b600060208284031215610fdc57600080fd5b6000610fea84828501610edf565b91505092915050565b6000610fff8383611244565b905092915050565b61101081611501565b82525050565b600061102182611495565b61102b81856114c3565b93508360208202850161103d85611470565b8060005b85811015611079578484038952815161105a8582610ff3565b9450611065836114b6565b925060208a01995050600181019050611041565b50829750879550505050505092915050565b61109481611513565b82525050565b60006110a5826114ab565b6110af81856114e5565b93506110bf818560208601611558565b6110c88161158b565b840191505092915050565b60006110de826114ab565b6110e881856114f6565b93506110f8818560208601611558565b80840191505092915050565b600061110f826114a0565b61111981856114d4565b9350611129818560208601611558565b6111328161158b565b840191505092915050565b6000611148826114a0565b61115281856114e5565b9350611162818560208601611558565b61116b8161158b565b840191505092915050565b60008154600181166000811461119357600181146111b8576111fc565b607f60028304166111a481876114f6565b955060ff19831686528086019350506111fc565b600282046111c681876114f6565b95506111d185611480565b60005b828110156111f3578154818901526001820191506020810190506111d4565b82880195505050505b505092915050565b60006112116013836114e5565b91507f5573657220416c726561647920566f74656420000000000000000000000000006000830152602082019050919050565b600060808301600083015161125c60008601826112ae565b50602083015184820360208601526112748282611104565b9150506040830151848203604086015261128e8282611104565b91505060608301516112a360608601826112ae565b508091505092915050565b6112b78161153f565b82525050565b6112c68161153f565b82525050565b60006112d882846110d3565b915081905092915050565b60006112ef8284611176565b915081905092915050565b600060208201905081810360008301526113148184611016565b905092915050565b6000602082019050611331600083018461108b565b92915050565b60006020820190508181036000830152611351818461109a565b905092915050565b60006040820190508181036000830152611373818561113d565b90506113826020830184611007565b9392505050565b600060208201905081810360008301526113a281611204565b9050919050565b60006020820190506113be60008301846112bd565b92915050565b60006080820190506113d960008301876112bd565b81810360208301526113eb818661113d565b905081810360408301526113ff818561113d565b905061140e60608301846112bd565b95945050505050565b6000604051905081810181811067ffffffffffffffff8211171561143a57600080fd5b8060405250919050565b600067ffffffffffffffff82111561145b57600080fd5b601f19601f8301169050602081019050919050565b6000819050602082019050919050565b60008190508160005260206000209050919050565b600081519050919050565b600081519050919050565b600081519050919050565b6000602082019050919050565b600082825260208201905092915050565b600082825260208201905092915050565b600082825260208201905092915050565b600081905092915050565b600061150c8261151f565b9050919050565b60008115159050919050565b600073ffffffffffffffffffffffffffffffffffffffff82169050919050565b6000819050919050565b82818337600083830152505050565b60005b8381101561157657808201518184015260208101905061155b565b83811115611585576000848401525b50505050565b6000601f19601f8301169050919050565b6115a581611501565b81146115b057600080fd5b50565b6115bc8161153f565b81146115c757600080fd5b5056fea365627a7a7231582006c1173b25aacbf5bf99ce4f03171dd6e8afde9260494d65d95a47395043804c6c6578706572696d656e74616cf564736f6c63430005100040",
  "source": "pragma solidity ^0.5.16;\npragma experimental ABIEncoderV2;\n\ncontract Election {\n\n    string myname;\n    string myemail; \n    // Model a Candidate\n    struct Poll {\n        uint256 id;\n        string pollid;\n        string option;\n        uint256 voteCount;\n    }\n\n    struct Verification{\n      string pollid;\n      address voter;\n    }\n    \n        Verification[] public proposals;\n\n    mapping(address => bool) public voters;\n    mapping(uint256 => Poll) public polls;\n \n\n    uint256 public pollCount;\n\n    constructor() public {}\n\n    bool public check = false;\n    bool public voterExist = false;\n\n    event votedEvent(string indexed pollId, string indexed option);\n\n    function vote(string memory pollid, string memory option) public {\n   \n         for (uint p = 0; p < proposals.length; p++) {\n            if(  keccak256(abi.encodePacked((proposals[p].pollid))) ==\n            keccak256(abi.encodePacked((pollid)))  &&   proposals[p].voter == msg.sender)\n             {\n                     voterExist= true;\n                      voters[msg.sender]=true;\n                      require(!voters[msg.sender], \"User Already Voted \");\n                      break;\n            }\n        }\n      \nif(keccak256(abi.encodePacked((polls[pollCount].pollid))) == keccak256(abi.encodePacked((pollid)))\n\n&& (keccak256(abi.encodePacked(polls[pollCount].option)) == (keccak256(abi.encodePacked(option))))  )\n{\n     polls[pollCount].voteCount++;   \n         proposals.push(Verification({\n                pollid:pollid,\n                voter: msg.sender\n            }));\n }\n   \nelse\n\n{\n//stonedetailsTable[0].stoneidsbycutter.push(\"hello\");\n\ncheck = false;\n proposals.push(Verification({\n                pollid:pollid,\n                voter: msg.sender\n            }));\npollCount++;\npolls[pollCount].id= pollCount;\npolls[pollCount].pollid= pollid;\npolls[pollCount].option= option;\npolls[pollCount].voteCount= 0;\npolls[pollCount].voteCount ++;\nemit votedEvent(pollid,option);\n\n}\n\n        \n    }\n\n     function setName(string memory _name) public {\n        myname = _name;\n    }\n\n    function getName() public view returns (string memory) {\n        return myname;\n    }\n\n    function getAllData() public view returns (Poll[] memory) {\n        Poll[] memory myPoll = new Poll[](pollCount);\n        for (uint256 i = 0; i < pollCount; i++) {\n            Poll storage pol = polls[i];\n            myPoll[i] = pol;\n        }\n\n        return myPoll;\n    }\n}\n",
  "sourcePath": "/home/zara/Documents/Frontend-Vlock/contracts/Election.sol",
  "compiler": {
    "name": "solc",
    "version": "0.5.16+commit.9c3226ce.Emscripten.clang"
  },
  "schemaVersion": "3.2.3",
  "updatedAt": "2021-01-12T09:47:53.168Z",
  "networkType": "ethereum",
  "devdoc": {
    "methods": {}
  },
  "userdoc": {
    "methods": {}
  }
}