{
  "contractName": "Login",
  "abi": [
    {
      "inputs": [],
      "payable": false,
      "stateMutability": "nonpayable",
      "type": "constructor"
    },
    {
      "constant": true,
      "inputs": [],
      "name": "logCount",
      "outputs": [
        {
          "internalType": "uint256",
          "name": "",
          "type": "uint256"
        }
      ],
      "payable": false,
      "stateMutability": "view",
      "type": "function"
    },
    {
      "constant": true,
      "inputs": [
        {
          "internalType": "uint256",
          "name": "",
          "type": "uint256"
        }
      ],
      "name": "logs",
      "outputs": [
        {
          "internalType": "uint256",
          "name": "id",
          "type": "uint256"
        },
        {
          "internalType": "int256",
          "name": "sap_id",
          "type": "int256"
        },
        {
          "internalType": "string",
          "name": "name",
          "type": "string"
        },
        {
          "internalType": "string",
          "name": "departmnet",
          "type": "string"
        },
        {
          "internalType": "string",
          "name": "degree",
          "type": "string"
        },
        {
          "internalType": "string",
          "name": "password",
          "type": "string"
        },
        {
          "internalType": "string",
          "name": "email",
          "type": "string"
        }
      ],
      "payable": false,
      "stateMutability": "view",
      "type": "function"
    },
    {
      "constant": false,
      "inputs": [
        {
          "internalType": "string",
          "name": "_name",
          "type": "string"
        }
      ],
      "name": "setName",
      "outputs": [],
      "payable": false,
      "stateMutability": "nonpayable",
      "type": "function"
    },
    {
      "constant": true,
      "inputs": [],
      "name": "getName",
      "outputs": [
        {
          "internalType": "string",
          "name": "",
          "type": "string"
        }
      ],
      "payable": false,
      "stateMutability": "view",
      "type": "function"
    },
    {
      "constant": false,
      "inputs": [
        {
          "internalType": "string",
          "name": "_email",
          "type": "string"
        }
      ],
      "name": "setEmail",
      "outputs": [],
      "payable": false,
      "stateMutability": "nonpayable",
      "type": "function"
    },
    {
      "constant": true,
      "inputs": [],
      "name": "getEmail",
      "outputs": [
        {
          "internalType": "string",
          "name": "",
          "type": "string"
        }
      ],
      "payable": false,
      "stateMutability": "view",
      "type": "function"
    }
  ],
  "bytecode": "0x60806040523480156200001157600080fd5b50620001336109606040518060400160405280600681526020017f536f6861696c00000000000000000000000000000000000000000000000000008152506040518060400160405280600281526020017f46430000000000000000000000000000000000000000000000000000000000008152506040518060400160405280600481526020017f42535345000000000000000000000000000000000000000000000000000000008152506040518060400160405280600681526020017f41424431323300000000000000000000000000000000000000000000000000008152506040518060400160405280600e81526020017f7465737440676d61696c2e636f6d000000000000000000000000000000000000815250620002f660201b60201c565b620002546109c46040518060400160405280600881526020017f54616e7a65656c610000000000000000000000000000000000000000000000008152506040518060400160405280600281526020017f46430000000000000000000000000000000000000000000000000000000000008152506040518060400160405280600481526020017f42535345000000000000000000000000000000000000000000000000000000008152506040518060400160405280600681526020017f46474831323300000000000000000000000000000000000000000000000000008152506040518060400160405280600f81526020017f746573743140676d61696c2e636f6d0000000000000000000000000000000000815250620002f660201b60201c565b6040518060400160405280600481526020017f5a6172610000000000000000000000000000000000000000000000000000000081525060009080519060200190620002a19291906200040c565b506040518060400160405280600881526020017f746573742e636f6d00000000000000000000000000000000000000000000000081525060019080519060200190620002ef9291906200040c565b5062000542565b6003600081548092919060010191905055506040518060e00160405280600354815260200187815260200186815260200185815260200184815260200183815260200182815250600260006003548152602001908152602001600020600082015181600001556020820151816001015560408201518160020190805190602001906200038492919062000493565b506060820151816003019080519060200190620003a392919062000493565b506080820151816004019080519060200190620003c292919062000493565b5060a0820151816005019080519060200190620003e192919062000493565b5060c08201518160060190805190602001906200040092919062000493565b50905050505050505050565b828054600181600116156101000203166002900490600052602060002090601f016020900481019282601f106200044f57805160ff191683800117855562000480565b8280016001018555821562000480579182015b828111156200047f57825182559160200191906001019062000462565b5b5090506200048f91906200051a565b5090565b828054600181600116156101000203166002900490600052602060002090601f016020900481019282601f10620004d657805160ff191683800117855562000507565b8280016001018555821562000507579182015b8281111562000506578251825591602001919060010190620004e9565b5b5090506200051691906200051a565b5090565b6200053f91905b808211156200053b57600081600090555060010162000521565b5090565b90565b610af880620005526000396000f3fe608060405234801561001057600080fd5b50600436106100625760003560e01c806317d7de7c14610067578063282b065a146100ea5780637e79e8ba146101a5578063a503898f14610228578063c47f002714610246578063e79899bd14610301575b600080fd5b61006f610566565b6040518080602001828103825283818151815260200191508051906020019080838360005b838110156100af578082015181840152602081019050610094565b50505050905090810190601f1680156100dc5780820380516001836020036101000a031916815260200191505b509250505060405180910390f35b6101a36004803603602081101561010057600080fd5b810190808035906020019064010000000081111561011d57600080fd5b82018360208201111561012f57600080fd5b8035906020019184600183028401116401000000008311171561015157600080fd5b91908080601f016020809104026020016040519081016040528093929190818152602001838380828437600081840152601f19601f820116905080830192505050505050509192919290505050610608565b005b6101ad610622565b6040518080602001828103825283818151815260200191508051906020019080838360005b838110156101ed5780820151818401526020810190506101d2565b50505050905090810190601f16801561021a5780820380516001836020036101000a031916815260200191505b509250505060405180910390f35b6102306106c4565b6040518082815260200191505060405180910390f35b6102ff6004803603602081101561025c57600080fd5b810190808035906020019064010000000081111561027957600080fd5b82018360208201111561028b57600080fd5b803590602001918460018302840111640100000000831117156102ad57600080fd5b91908080601f016020809104026020016040519081016040528093929190818152602001838380828437600081840152601f19601f8201169050808301925050505050505091929192905050506106ca565b005b61032d6004803603602081101561031757600080fd5b81019080803590602001909291905050506106e4565b60405180888152602001878152602001806020018060200180602001806020018060200186810386528b818151815260200191508051906020019080838360005b8381101561038957808201518184015260208101905061036e565b50505050905090810190601f1680156103b65780820380516001836020036101000a031916815260200191505b5086810385528a818151815260200191508051906020019080838360005b838110156103ef5780820151818401526020810190506103d4565b50505050905090810190601f16801561041c5780820380516001836020036101000a031916815260200191505b50868103845289818151815260200191508051906020019080838360005b8381101561045557808201518184015260208101905061043a565b50505050905090810190601f1680156104825780820380516001836020036101000a031916815260200191505b50868103835288818151815260200191508051906020019080838360005b838110156104bb5780820151818401526020810190506104a0565b50505050905090810190601f1680156104e85780820380516001836020036101000a031916815260200191505b50868103825287818151815260200191508051906020019080838360005b83811015610521578082015181840152602081019050610506565b50505050905090810190601f16801561054e5780820380516001836020036101000a031916815260200191505b509c5050505050505050505050505060405180910390f35b606060008054600181600116156101000203166002900480601f0160208091040260200160405190810160405280929190818152602001828054600181600116156101000203166002900480156105fe5780601f106105d3576101008083540402835291602001916105fe565b820191906000526020600020905b8154815290600101906020018083116105e157829003601f168201915b5050505050905090565b806001908051906020019061061e929190610a1e565b5050565b606060018054600181600116156101000203166002900480601f0160208091040260200160405190810160405280929190818152602001828054600181600116156101000203166002900480156106ba5780601f1061068f576101008083540402835291602001916106ba565b820191906000526020600020905b81548152906001019060200180831161069d57829003601f168201915b5050505050905090565b60035481565b80600090805190602001906106e0929190610a1e565b5050565b6002602052806000526040600020600091509050806000015490806001015490806002018054600181600116156101000203166002900480601f01602080910402602001604051908101604052809291908181526020018280546001816001161561010002031660029004801561079c5780601f106107715761010080835404028352916020019161079c565b820191906000526020600020905b81548152906001019060200180831161077f57829003601f168201915b505050505090806003018054600181600116156101000203166002900480601f01602080910402602001604051908101604052809291908181526020018280546001816001161561010002031660029004801561083a5780601f1061080f5761010080835404028352916020019161083a565b820191906000526020600020905b81548152906001019060200180831161081d57829003601f168201915b505050505090806004018054600181600116156101000203166002900480601f0160208091040260200160405190810160405280929190818152602001828054600181600116156101000203166002900480156108d85780601f106108ad576101008083540402835291602001916108d8565b820191906000526020600020905b8154815290600101906020018083116108bb57829003601f168201915b505050505090806005018054600181600116156101000203166002900480601f0160208091040260200160405190810160405280929190818152602001828054600181600116156101000203166002900480156109765780601f1061094b57610100808354040283529160200191610976565b820191906000526020600020905b81548152906001019060200180831161095957829003601f168201915b505050505090806006018054600181600116156101000203166002900480601f016020809104026020016040519081016040528092919081815260200182805460018160011615610100020316600290048015610a145780601f106109e957610100808354040283529160200191610a14565b820191906000526020600020905b8154815290600101906020018083116109f757829003601f168201915b5050505050905087565b828054600181600116156101000203166002900490600052602060002090601f016020900481019282601f10610a5f57805160ff1916838001178555610a8d565b82800160010185558215610a8d579182015b82811115610a8c578251825591602001919060010190610a71565b5b509050610a9a9190610a9e565b5090565b610ac091905b80821115610abc576000816000905550600101610aa4565b5090565b9056fea265627a7a723158200abbecc9f44c06cf28a0d99d7409a1f76487dfb108d0bb25623cf170cea097f964736f6c63430005100032",
  "source": "pragma solidity ^0.5.16;\r\n\r\ncontract Login {\r\n    // Model a Candidate\r\n\r\n    string myname;\r\n    string myemail;\r\n\r\n    struct Log {\r\n        uint256 id;\r\n        int256 sap_id;\r\n        string name;\r\n        string departmnet;\r\n        string degree;\r\n        string password;\r\n        string email;\r\n    }\r\n\r\n    mapping(uint256 => Log) public logs;\r\n    uint256 public logCount;\r\n\r\n    constructor() public {\r\n        //console.log(\"Login Contract\")\r\n        addLog(2400, \"Sohail\", \"FC\", \"BSSE\", \"ABD123\", \"test@gmail.com\");\r\n        addLog(2500, \"Tanzeela\", \"FC\", \"BSSE\", \"FGH123\", \"test1@gmail.com\");\r\n        myname = \"Zara\";\r\n        myemail = \"test.com\";\r\n    }\r\n\r\n    function addLog(\r\n        int256 sap,\r\n        string memory _name,\r\n        string memory dep,\r\n        string memory degree,\r\n        string memory pass,\r\n        string memory email\r\n    ) private {\r\n        logCount++;\r\n        logs[logCount] = Log(logCount, sap, _name, dep, degree, pass, email);\r\n    }\r\n\r\n    function setName(string memory _name) public {\r\n        myname = _name;\r\n    }\r\n\r\n    function getName() public view returns (string memory) {\r\n        return myname;\r\n    }\r\n\r\n    function setEmail(string memory _email) public {\r\n        myemail = _email;\r\n    }\r\n\r\n    function getEmail() public view returns (string memory) {\r\n        return myemail;\r\n    }\r\n}\r\n",
  "sourcePath": "D:/fyp/Frontend-Vlock/contracts/Login.sol",
  "compiler": {
    "name": "solc",
    "version": "0.5.16+commit.9c3226ce.Emscripten.clang"
  },
  "schemaVersion": "3.3.3",
  "updatedAt": "2021-01-02T11:17:11.857Z",
  "networkType": "ethereum",
  "devdoc": {
    "methods": {}
  },
  "userdoc": {
    "methods": {}
  }
}