{
  "contractName": "Option",
  "abi": [
    {
      "constant": true,
      "inputs": [
        {
          "internalType": "uint256",
          "name": "",
          "type": "uint256"
        }
      ],
      "name": "MyBytesArray",
      "outputs": [
        {
          "internalType": "bytes32",
          "name": "",
          "type": "bytes32"
        }
      ],
      "payable": false,
      "stateMutability": "view",
      "type": "function"
    },
    {
      "constant": false,
      "inputs": [
        {
          "internalType": "bytes32",
          "name": "_item",
          "type": "bytes32"
        }
      ],
      "name": "addItem",
      "outputs": [],
      "payable": false,
      "stateMutability": "nonpayable",
      "type": "function"
    },
    {
      "constant": true,
      "inputs": [
        {
          "internalType": "uint256",
          "name": "index",
          "type": "uint256"
        }
      ],
      "name": "getMyBytesArray",
      "outputs": [
        {
          "internalType": "bytes32",
          "name": "",
          "type": "bytes32"
        }
      ],
      "payable": false,
      "stateMutability": "view",
      "type": "function"
    }
  ],
  "bytecode": "0x608060405234801561001057600080fd5b506101a0806100206000396000f3fe608060405234801561001057600080fd5b50600436106100415760003560e01c80632c95ad5214610046578063409069d8146100745780635745f03e146100b6575b600080fd5b6100726004803603602081101561005c57600080fd5b81019080803590602001909291905050506100f8565b005b6100a06004803603602081101561008a57600080fd5b810190808035906020019092919050505061012a565b6040518082815260200191505060405180910390f35b6100e2600480360360208110156100cc57600080fd5b810190808035906020019092919050505061014a565b6040518082815260200191505060405180910390f35b600160008290806001815401808255809150509060018203906000526020600020016000909192909190915055505050565b600080828154811061013857fe5b90600052602060002001549050919050565b6000818154811061015757fe5b90600052602060002001600091509050548156fea265627a7a72315820458d8893a5873230780aa05ce9b9aa8929696b728203e91555c1e12f997bbe1b64736f6c63430005100032",
  "source": "  pragma solidity ^0.5.16;\n\n  contract Option {\n\n     /* Bytes32 Array */\n     bytes32[] public MyBytesArray;\n\n     \n\n\n     function addItem(bytes32 _item) public {\n          MyBytesArray.push(_item) -1;\n     }\n\n  \n   \n     \n   \n\n function getMyBytesArray(uint index) public view returns(bytes32) {\n  return(MyBytesArray[index]);\n}\n  }",
  "sourcePath": "/home/zara/Final Front End/fyp2/contracts/Option.sol",
  "compiler": {
    "name": "solc",
    "version": "0.5.16+commit.9c3226ce.Emscripten.clang"
  },
  "schemaVersion": "3.2.3",
  "updatedAt": "2020-11-12T16:41:16.633Z",
  "networkType": "ethereum",
  "devdoc": {
    "methods": {}
  },
  "userdoc": {
    "methods": {}
  }
}