{
  "contractName": "Polling",
  "abi": [
    {
      "inputs": [],
      "payable": false,
      "stateMutability": "nonpayable",
      "type": "constructor"
    },
    {
      "anonymous": false,
      "inputs": [
        {
          "indexed": true,
          "internalType": "string",
          "name": "pollId",
          "type": "string"
        },
        {
          "indexed": true,
          "internalType": "string",
          "name": "option",
          "type": "string"
        }
      ],
      "name": "votedEvent",
      "type": "event"
    },
    {
      "constant": true,
      "inputs": [],
      "name": "check",
      "outputs": [
        {
          "internalType": "bool",
          "name": "",
          "type": "bool"
        }
      ],
      "payable": false,
      "stateMutability": "view",
      "type": "function"
    },
    {
      "constant": true,
      "inputs": [],
      "name": "pollCount",
      "outputs": [
        {
          "internalType": "uint256",
          "name": "",
          "type": "uint256"
        }
      ],
      "payable": false,
      "stateMutability": "view",
      "type": "function"
    },
    {
      "constant": true,
      "inputs": [
        {
          "internalType": "uint256",
          "name": "",
          "type": "uint256"
        }
      ],
      "name": "polls",
      "outputs": [
        {
          "internalType": "uint256",
          "name": "id",
          "type": "uint256"
        },
        {
          "internalType": "string",
          "name": "pollid",
          "type": "string"
        },
        {
          "internalType": "string",
          "name": "option",
          "type": "string"
        },
        {
          "internalType": "uint256",
          "name": "voteCount",
          "type": "uint256"
        }
      ],
      "payable": false,
      "stateMutability": "view",
      "type": "function"
    },
    {
      "constant": true,
      "inputs": [
        {
          "internalType": "address",
          "name": "",
          "type": "address"
        }
      ],
      "name": "voters",
      "outputs": [
        {
          "internalType": "bool",
          "name": "",
          "type": "bool"
        }
      ],
      "payable": false,
      "stateMutability": "view",
      "type": "function"
    },
    {
      "constant": false,
      "inputs": [
        {
          "internalType": "string",
          "name": "pollid",
          "type": "string"
        },
        {
          "internalType": "string",
          "name": "option",
          "type": "string"
        }
      ],
      "name": "vote",
      "outputs": [],
      "payable": false,
      "stateMutability": "nonpayable",
      "type": "function"
    },
    {
      "constant": true,
      "inputs": [],
      "name": "getAll",
      "outputs": [
        {
          "components": [
            {
              "internalType": "uint256",
              "name": "id",
              "type": "uint256"
            },
            {
              "internalType": "string",
              "name": "pollid",
              "type": "string"
            },
            {
              "internalType": "string",
              "name": "option",
              "type": "string"
            },
            {
              "internalType": "uint256",
              "name": "voteCount",
              "type": "uint256"
            }
          ],
          "internalType": "struct Polling.Poll[]",
          "name": "",
          "type": "tuple[]"
        }
      ],
      "payable": false,
      "stateMutability": "view",
      "type": "function"
    }
  ],
  "bytecode": "0x60806040526000600360006101000a81548160ff02191690831515021790555034801561002b57600080fd5b50610f5f8061003b6000396000f3fe608060405234801561001057600080fd5b50600436106100625760003560e01c806353ed514314610067578063919840ad146100855780639207891d146100a3578063a3ec138d146100c1578063ac2f0074146100f1578063e8d5940d14610124575b600080fd5b61006f610140565b60405161007c9190610cbe565b60405180910390f35b61008d61033a565b60405161009a9190610ce0565b60405180910390f35b6100ab61034d565b6040516100b89190610cfb565b60405180910390f35b6100db60048036036100d69190810190610981565b610353565b6040516100e89190610ce0565b60405180910390f35b61010b60048036036101069190810190610a16565b610373565b60405161011b9493929190610d16565b60405180910390f35b61013e600480360361013991908101906109aa565b6104d3565b005b60608060025460405190808252806020026020018201604052801561017f57816020015b61016c610836565b8152602001906001900390816101645790505b50905060008090505b6002548110156103325760006001600083815260200190815260200160002090508060405180608001604052908160008201548152602001600182018054600181600116156101000203166002900480601f0160208091040260200160405190810160405280929190818152602001828054600181600116156101000203166002900480156102585780601f1061022d57610100808354040283529160200191610258565b820191906000526020600020905b81548152906001019060200180831161023b57829003601f168201915b50505050508152602001600282018054600181600116156101000203166002900480601f0160208091040260200160405190810160405280929190818152602001828054600181600116156101000203166002900480156102fa5780601f106102cf576101008083540402835291602001916102fa565b820191906000526020600020905b8154815290600101906020018083116102dd57829003601f168201915b5050505050815260200160038201548152505083838151811061031957fe5b6020026020010181905250508080600101915050610188565b508091505090565b600360009054906101000a900460ff1681565b60025481565b60006020528060005260406000206000915054906101000a900460ff1681565b6001602052806000526040600020600091509050806000015490806001018054600181600116156101000203166002900480601f0160208091040260200160405190810160405280929190818152602001828054600181600116156101000203166002900480156104255780601f106103fa57610100808354040283529160200191610425565b820191906000526020600020905b81548152906001019060200180831161040857829003601f168201915b505050505090806002018054600181600116156101000203166002900480601f0160208091040260200160405190810160405280929190818152602001828054600181600116156101000203166002900480156104c35780601f10610498576101008083540402835291602001916104c3565b820191906000526020600020905b8154815290600101906020018083116104a657829003601f168201915b5050505050908060030154905084565b816040516020016104e49190610c90565b604051602081830303815290604052805190602001206001600060025481526020019081526020016000206001016040516020016105229190610ca7565b604051602081830303815290604052805190602001201480156105a75750806040516020016105519190610c90565b6040516020818303038152906040528051906020012060016000600254815260200190815260200160002060020160405160200161058f9190610ca7565b60405160208183030381529060405280519060200120145b156106a3576001600360006101000a81548160ff0219169083151502179055506001600060025481526020019081526020016000206003016000815480929190600101919050555060016000803373ffffffffffffffffffffffffffffffffffffffff1673ffffffffffffffffffffffffffffffffffffffff16815260200190815260200160002060006101000a81548160ff021916908315150217905550806040516106549190610c90565b60405180910390208260405161066a9190610c90565b60405180910390207fb72bc004d3c880dde5aa3e326a8cd34deb7b664a4eccf90d78bce917dce6964f60405160405180910390a3610832565b6000600360006101000a81548160ff02191690831515021790555060016000803373ffffffffffffffffffffffffffffffffffffffff1673ffffffffffffffffffffffffffffffffffffffff16815260200190815260200160002060006101000a81548160ff02191690831515021790555060026000815480929190600101919050555060405180608001604052806002548152602001838152602001828152602001600081525060016000600254815260200190815260200160002060008201518160000155602082015181600101908051906020019061078692919061085e565b5060408201518160020190805190602001906107a392919061085e565b506060820151816003015590505060016000600254815260200190815260200160002060030160008154809291906001019190505550806040516107e79190610c90565b6040518091039020826040516107fd9190610c90565b60405180910390207fb72bc004d3c880dde5aa3e326a8cd34deb7b664a4eccf90d78bce917dce6964f60405160405180910390a35b5050565b6040518060800160405280600081526020016060815260200160608152602001600081525090565b828054600181600116156101000203166002900490600052602060002090601f016020900481019282601f1061089f57805160ff19168380011785556108cd565b828001600101855582156108cd579182015b828111156108cc5782518255916020019190600101906108b1565b5b5090506108da91906108de565b5090565b61090091905b808211156108fc5760008160009055506001016108e4565b5090565b90565b60008135905061091281610eee565b92915050565b600082601f83011261092957600080fd5b813561093c61093782610d96565b610d69565b9150808252602083016020830185838301111561095857600080fd5b610963838284610e9b565b50505092915050565b60008135905061097b81610f05565b92915050565b60006020828403121561099357600080fd5b60006109a184828501610903565b91505092915050565b600080604083850312156109bd57600080fd5b600083013567ffffffffffffffff8111156109d757600080fd5b6109e385828601610918565b925050602083013567ffffffffffffffff811115610a0057600080fd5b610a0c85828601610918565b9150509250929050565b600060208284031215610a2857600080fd5b6000610a368482850161096c565b91505092915050565b6000610a4b8383610c08565b905092915050565b6000610a5e82610de7565b610a688185610e15565b935083602082028501610a7a85610dc2565b8060005b85811015610ab65784840389528151610a978582610a3f565b9450610aa283610e08565b925060208a01995050600181019050610a7e565b50829750879550505050505092915050565b610ad181610e65565b82525050565b6000610ae282610dfd565b610aec8185610e48565b9350610afc818560208601610eaa565b80840191505092915050565b6000610b1382610df2565b610b1d8185610e26565b9350610b2d818560208601610eaa565b610b3681610edd565b840191505092915050565b6000610b4c82610df2565b610b568185610e37565b9350610b66818560208601610eaa565b610b6f81610edd565b840191505092915050565b600081546001811660008114610b975760018114610bbc57610c00565b607f6002830416610ba88187610e48565b955060ff1983168652808601935050610c00565b60028204610bca8187610e48565b9550610bd585610dd2565b60005b82811015610bf757815481890152600182019150602081019050610bd8565b82880195505050505b505092915050565b6000608083016000830151610c206000860182610c72565b5060208301518482036020860152610c388282610b08565b91505060408301518482036040860152610c528282610b08565b9150506060830151610c676060860182610c72565b508091505092915050565b610c7b81610e91565b82525050565b610c8a81610e91565b82525050565b6000610c9c8284610ad7565b915081905092915050565b6000610cb38284610b7a565b915081905092915050565b60006020820190508181036000830152610cd88184610a53565b905092915050565b6000602082019050610cf56000830184610ac8565b92915050565b6000602082019050610d106000830184610c81565b92915050565b6000608082019050610d2b6000830187610c81565b8181036020830152610d3d8186610b41565b90508181036040830152610d518185610b41565b9050610d606060830184610c81565b95945050505050565b6000604051905081810181811067ffffffffffffffff82111715610d8c57600080fd5b8060405250919050565b600067ffffffffffffffff821115610dad57600080fd5b601f19601f8301169050602081019050919050565b6000819050602082019050919050565b60008190508160005260206000209050919050565b600081519050919050565b600081519050919050565b600081519050919050565b6000602082019050919050565b600082825260208201905092915050565b600082825260208201905092915050565b600082825260208201905092915050565b600081905092915050565b6000610e5e82610e71565b9050919050565b60008115159050919050565b600073ffffffffffffffffffffffffffffffffffffffff82169050919050565b6000819050919050565b82818337600083830152505050565b60005b83811015610ec8578082015181840152602081019050610ead565b83811115610ed7576000848401525b50505050565b6000601f19601f8301169050919050565b610ef781610e53565b8114610f0257600080fd5b50565b610f0e81610e91565b8114610f1957600080fd5b5056fea365627a7a72315820897103bc5184b5f89e421128fa3754b8de9adf785018e9e19eb01198b233485f6c6578706572696d656e74616cf564736f6c63430005100040",
  "source": "pragma solidity ^0.5.16;\r\npragma experimental ABIEncoderV2;\r\ncontract Polling {\r\n    // Model a Candidate\r\n    struct Poll {\r\n        uint256 id;\r\n        string pollid;\r\n        string option;\r\n        uint256 voteCount;\r\n    }\r\n\r\n    mapping(address => bool) public voters;\r\n    mapping(uint256 => Poll) public polls;\r\n\r\n    uint256 public pollCount;\r\n    constructor() public {\r\n\r\n    }\r\n\r\n    bool public check=false;\r\n\r\n\r\n\r\n    event votedEvent(string indexed pollId, string indexed option);\r\n\r\n    function vote(string memory pollid, string memory option) public\r\n    {\r\n        if(keccak256(abi.encodePacked((polls[pollCount].pollid))) == keccak256(abi.encodePacked((pollid))) && (keccak256(abi.encodePacked(polls[pollCount].option)) == (keccak256(abi.encodePacked(option)))))\r\n        {\r\n            check = true;\r\n            polls[pollCount].voteCount ++;\r\n            voters[msg.sender]=true;\r\n            emit votedEvent(pollid,option);\r\n\r\n        } else {\r\n            check = false;\r\n            voters[msg.sender]=true;\r\n            pollCount++;\r\n            polls[pollCount]= Poll(pollCount, pollid, option,0);\r\n            polls[pollCount].voteCount ++;\r\n            emit votedEvent(pollid,option);\r\n        }\r\n    }\r\n\r\n\r\n    function getAll() public view returns (Poll[] memory){\r\n\r\n        Poll [] memory myPoll = new Poll[](pollCount);\r\n        for (uint256 i = 0 ; i <pollCount; i++)    {\r\n            Poll storage pol = polls[i];\r\n            myPoll[i] = pol;\r\n        }\r\n        return myPoll;\r\n    }\r\n}",
  "sourcePath": "D:/fyp/Frontend-Vlock/contracts/VotingPoll.sol",
  "compiler": {
    "name": "solc",
    "version": "0.5.16+commit.9c3226ce.Emscripten.clang"
  },
  "schemaVersion": "3.3.3",
  "updatedAt": "2021-01-02T10:44:26.509Z",
  "devdoc": {
    "methods": {}
  },
  "userdoc": {
    "methods": {}
  }
}