{
  "contractName": "Registration",
  "abi": [
    {
      "inputs": [],
      "payable": false,
      "stateMutability": "nonpayable",
      "type": "constructor"
    },
    {
      "constant": true,
      "inputs": [
        {
          "internalType": "uint256",
          "name": "",
          "type": "uint256"
        }
      ],
      "name": "users",
      "outputs": [
        {
          "internalType": "uint256",
          "name": "id",
          "type": "uint256"
        },
        {
          "internalType": "int256",
          "name": "sap_id",
          "type": "int256"
        },
        {
          "internalType": "string",
          "name": "name",
          "type": "string"
        },
        {
          "internalType": "string",
          "name": "departmnet",
          "type": "string"
        },
        {
          "internalType": "string",
          "name": "degree",
          "type": "string"
        },
        {
          "internalType": "string",
          "name": "password",
          "type": "string"
        },
        {
          "internalType": "string",
          "name": "email",
          "type": "string"
        }
      ],
      "payable": false,
      "stateMutability": "view",
      "type": "function"
    },
    {
      "constant": true,
      "inputs": [],
      "name": "usersCount",
      "outputs": [
        {
          "internalType": "uint256",
          "name": "",
          "type": "uint256"
        }
      ],
      "payable": false,
      "stateMutability": "view",
      "type": "function"
    }
  ],
  "bytecode": "0x608060405234801561001057600080fd5b506101306109606040518060400160405280600481526020017f5a617261000000000000000000000000000000000000000000000000000000008152506040518060400160405280600281526020017f46430000000000000000000000000000000000000000000000000000000000008152506040518060400160405280600481526020017f42535345000000000000000000000000000000000000000000000000000000008152506040518060400160405280600681526020017f41424431323300000000000000000000000000000000000000000000000000008152506040518060400160405280600e81526020017f7465737440676d61696c2e636f6d00000000000000000000000000000000000081525061025460201b60201c565b61024f6109c46040518060400160405280600681526020017f5a617269736800000000000000000000000000000000000000000000000000008152506040518060400160405280600281526020017f46430000000000000000000000000000000000000000000000000000000000008152506040518060400160405280600481526020017f42535345000000000000000000000000000000000000000000000000000000008152506040518060400160405280600681526020017f46474831323300000000000000000000000000000000000000000000000000008152506040518060400160405280600f81526020017f746573743140676d61696c2e636f6d000000000000000000000000000000000081525061025460201b60201c565b610404565b6001600081548092919060010191905055506040518060e001604052806001548152602001878152602001868152602001858152602001848152602001838152602001828152506000806001548152602001908152602001600020600082015181600001556020820151816001015560408201518160020190805190602001906102df92919061035f565b5060608201518160030190805190602001906102fc92919061035f565b50608082015181600401908051906020019061031992919061035f565b5060a082015181600501908051906020019061033692919061035f565b5060c082015181600601908051906020019061035392919061035f565b50905050505050505050565b828054600181600116156101000203166002900490600052602060002090601f016020900481019282601f106103a057805160ff19168380011785556103ce565b828001600101855582156103ce579182015b828111156103cd5782518255916020019190600101906103b2565b5b5090506103db91906103df565b5090565b61040191905b808211156103fd5760008160009055506001016103e5565b5090565b90565b610633806104136000396000f3fe608060405234801561001057600080fd5b50600436106100365760003560e01c8063365b98b21461003b5780636ba13a82146102a0575b600080fd5b6100676004803603602081101561005157600080fd5b81019080803590602001909291905050506102be565b60405180888152602001878152602001806020018060200180602001806020018060200186810386528b818151815260200191508051906020019080838360005b838110156100c35780820151818401526020810190506100a8565b50505050905090810190601f1680156100f05780820380516001836020036101000a031916815260200191505b5086810385528a818151815260200191508051906020019080838360005b8381101561012957808201518184015260208101905061010e565b50505050905090810190601f1680156101565780820380516001836020036101000a031916815260200191505b50868103845289818151815260200191508051906020019080838360005b8381101561018f578082015181840152602081019050610174565b50505050905090810190601f1680156101bc5780820380516001836020036101000a031916815260200191505b50868103835288818151815260200191508051906020019080838360005b838110156101f55780820151818401526020810190506101da565b50505050905090810190601f1680156102225780820380516001836020036101000a031916815260200191505b50868103825287818151815260200191508051906020019080838360005b8381101561025b578082015181840152602081019050610240565b50505050905090810190601f1680156102885780820380516001836020036101000a031916815260200191505b509c5050505050505050505050505060405180910390f35b6102a86105f8565b6040518082815260200191505060405180910390f35b6000602052806000526040600020600091509050806000015490806001015490806002018054600181600116156101000203166002900480601f0160208091040260200160405190810160405280929190818152602001828054600181600116156101000203166002900480156103765780601f1061034b57610100808354040283529160200191610376565b820191906000526020600020905b81548152906001019060200180831161035957829003601f168201915b505050505090806003018054600181600116156101000203166002900480601f0160208091040260200160405190810160405280929190818152602001828054600181600116156101000203166002900480156104145780601f106103e957610100808354040283529160200191610414565b820191906000526020600020905b8154815290600101906020018083116103f757829003601f168201915b505050505090806004018054600181600116156101000203166002900480601f0160208091040260200160405190810160405280929190818152602001828054600181600116156101000203166002900480156104b25780601f10610487576101008083540402835291602001916104b2565b820191906000526020600020905b81548152906001019060200180831161049557829003601f168201915b505050505090806005018054600181600116156101000203166002900480601f0160208091040260200160405190810160405280929190818152602001828054600181600116156101000203166002900480156105505780601f1061052557610100808354040283529160200191610550565b820191906000526020600020905b81548152906001019060200180831161053357829003601f168201915b505050505090806006018054600181600116156101000203166002900480601f0160208091040260200160405190810160405280929190818152602001828054600181600116156101000203166002900480156105ee5780601f106105c3576101008083540402835291602001916105ee565b820191906000526020600020905b8154815290600101906020018083116105d157829003601f168201915b5050505050905087565b6001548156fea265627a7a72315820541533dd61b101800a7ad8f0f1a5518b5ee7f730147e55e2753891617969d55d64736f6c63430005100032",
  "source": "pragma solidity ^0.5.16;\r\n\r\ncontract Registration {\r\n    // Model a Candidate\r\n    struct User {\r\n        uint id;\r\n        int sap_id;\r\n        string name;\r\n        string departmnet;\r\n        string degree;\r\n        string password;\r\n        string email;\r\n    }\r\n\r\n  \r\n    mapping(uint => User) public users;\r\n    uint public usersCount;\r\n\r\n    \r\n    constructor() public {\r\n        addUser(2400,\"Zara\", \"FC\",\"BSSE\",\"ABD123\",\"test@gmail.com\");\r\n        addUser(2500,\"Zarish\", \"FC\",\"BSSE\",\"FGH123\",\"test1@gmail.com\");\r\n        \r\n    }\r\n\r\n    function addUser (int sap, string memory _name, string memory dep, string memory degree,  string memory pass,  string memory email) private {\r\n      usersCount ++;\r\n      users[usersCount] = User(usersCount,sap, _name, dep,degree,pass,email);\r\n       \r\n    }\r\n\r\n\r\n    \r\n}\r\n",
  "sourcePath": "D:/fyp/Frontend-Vlock/contracts/Registration.sol",
  "compiler": {
    "name": "solc",
    "version": "0.5.16+commit.9c3226ce.Emscripten.clang"
  },
  "schemaVersion": "3.3.3",
  "updatedAt": "2021-01-02T11:17:11.853Z",
  "networkType": "ethereum",
  "devdoc": {
    "methods": {}
  },
  "userdoc": {
    "methods": {}
  }
}